:020000040800F2
:1000000000500020510800083D0600083F06000887
:1000100041060008430600084506000800000000ED
:10002000000000000000000000000000470600087B
:1000300049060008000000004B0600084D060008B5
:10004000990800089908000899080008990800080C
:1000500099080008990800089908000899080008FC
:100060009908000899080008990800085506000832
:1000700099080008990800089908000899080008DC
:1000800099080008990800089908000899080008CC
:1000900099080008990800089908000899080008BC
:1000A00099080008990800089908000899080008AC
:1000B0009908000899080008A10600089908000896
:1000C000990800089908000899080008990800088C
:1000D000990800089908000899080008990800087C
:1000E0009908000899080008990800080000000015
:1000F0000000000000000000000000000000000000
:0C01000000000000000000005FF808F1A3
:10010C000348044B834202D0034B03B1184770479A
:10011C001000002010000020000000000548064BD5
:10012C001B1AD90F01EBA301491002D0034B03B1E9
:10013C00184770471000002010000020000000003D
:10014C0010B5064C237843B9FFF7DAFF044B13B113
:10015C000448AFF300800123237010BD1000002071
:10016C00000000008021000808B5054B1BB10549B3
:10017C000548AFF30080BDE80840FFF7CFBF00BFD4
:10018C0000000000140000208021000800B585B09C
:10019C0000230193029303931048114A0260836079
:1001AC00037303754FF42022C26143600123036182
:1001BC0000F098FC60B9012301930293062303938A
:1001CC0001A9064800F0C2FB28B905B05DF804FB94
:1001DC0000F070F9EFE700F06DF9F6E7A0000020F1
:1001EC000024014000B585B00023019302930393D2
:1001FC001148124A02608360037303754FF4602246
:10020C00C26143600123036100F06CFC68B90223F6
:10021C000193012302930323039301A9064800F0E1
:10022C0095FB28B905B05DF804FB00F043F9EEE747
:10023C0000F040F9F6E700BF7000002000280140F4
:10024C0010B588B0002304930593069307930368B5
:10025C002D4A934204D02D4A934238D008B010BD99
:10026C0004462B4B9A6942F400729A619A6902F423
:10027C0000720092009A9A6942F004029A619B699A
:10028C0003F004030193019B0223049303230593BE
:10029C0004A9204800F0F8FD1F48204B0360002300
:1002AC00436083608022C2604FF4807202614FF41D
:1002BC008062426120228261C36100F00FFD18B997
:1002CC00154B23625C62C9E700F0F4F8F8E7104BB9
:1002DC009A6942F480629A619A6902F4806202928D
:1002EC00029A9A6942F004029A619B6903F0040332
:1002FC000393039B0C2304930323059304A9054840
:10030C0000F0C2FDAAE700BF002401400028014014
:10031C0000100240000801402C00002008000240A0
:10032C0000B583B00A4B5A6942F001025A615B690D
:10033C0003F001030193019B002211460B2000F0F6
:10034C009BFC0B2000F0A8FC03B05DF804FB00BF85
:10035C00001002402DE9F04188B00024049405946B
:10036C0006940794284B9A6942F020029A619A6984
:10037C0002F020020192019A9A6942F004029A61F9
:10038C009A6902F004020292029A9A6942F00802F7
:10039C009A619B6903F008030393039BDFF86C805D
:1003AC0022464FF48071404600F07CFE184D2246E8
:1003BC002021284600F076FE01224FF48071284659
:1003CC0000F070FE40F6064304930594069404A9CD
:1003DC00284600F059FD4FF48073049301270597CC
:1003EC0006940226079604A9404600F04DFD4FF4F2
:1003FC009073049305970694079604A9284600F079
:10040C0043FD08B0BDE8F081001002400008014037
:10041C00000C014008B50B480B4B03600B4B4360C1
:10042C0000238360C3604FF48042026143618361A7
:10043C00C361036200F0E0FF00B908BD00F03AF8B8
:10044C00FBE700BFD000002000540040A086010054
:10045C0010B586B0002302930393049305930268AE
:10046C00114B9A4201D006B010BD104CA36943F059
:10047C000803A361A36903F008030093009BC02346
:10048C000293122303930323059302A9084800F057
:10049C00FBFCE36943F40013E361E36903F4001329
:1004AC000193019BDFE700BF0054004000100240A5
:1004BC00000C014072B6FEE708B5294A136823F018
:1004CC00070343F002031360254B1B6803F007037B
:1004DC00022BF9D1234A136843F480331360214B68
:1004EC001B6813F4003FFAD01E4A536823F47C13A4
:1004FC0043F4E8135360136843F080731360194B93
:10050C001B6813F0007FFAD0164B5A6822F0F002E9
:10051C005A605A6822F4E06242F480625A605A6867
:10052C0022F460525A605A6822F0030242F002022E
:10053C005A600C4B5B6803F00C03082BF9D10A488A
:10054C0001F0E4FC0F2000F0A3F938B9054A536818
:10055C0023F4404343F40043536008BDFFF7AAFF64
:10056C00002002400010024000A24A0400B5ADF584
:10057C00805D87B000F0B2F9FFF79EFFFFF7EAFE4F
:10058C00FFF7CEFE00F008F9FFF700FEFFF72AFE9A
:10059C0000F08AF8FFF73EFF01F0D4FC4FF48052D4
:1005AC00002106A801F006FD01F0ECFC0E4801F05C
:1005BC00B3F80028FDD1642000F0B4F9642000F0F9
:1005CC00B1F9AF238DF817304FF0FF3302930123AD
:1005DC0001930DF11702009200227821024800F0DD
:1005EC00E9FF0028FDD1E9E7D000002082B00E4BD6
:1005FC009A6942F001029A619A6902F00102009232
:10060C00009ADA6942F08052DA61DB6903F08053B8
:10061C000193019B054A536823F0E06343F0007398
:10062C00536002B0704700BF001002400000014050
:10063C00FEE7FEE7FEE7FEE7FEE770477047704710
:10064C0008B500F05DF908BD08B50D4B1B681B68BB
:10065C0013F0020F0FD00B4B02225A600A4B1B886F
:10066C00B3F5806F07D2591C074A1180074A1188CD
:10067C00074A22F81310024800F064FB08BD00BFC3
:10068C002C0000200000024024010020280900203A
:10069C002801002008B5024801F015F908BD00BF7B
:1006AC002C0900207047000000B58FB000230A937E
:1006BC000B930C930D93089309930193029303935B
:1006CC0004930593069307932148224A026047221C
:1006DC00426083606322C26003618023836101F006
:1006EC00E3F928BB4FF480530A930AA9184801F088
:1006FC00DBFA00BB164801F003FAF8B97023089333
:10070C008023099308A9124801F04EFBC8B9602355
:10071C0001933123029302230393002305930C22AC
:10072C0001A90B4801F046FA70B90FB05DF804FB53
:10073C00FFF7C0FED6E7FFF7BDFEDBE7FFF7BAFE1B
:10074C00DCE7FFF7B7FEE2E7FFF7B4FEEDE700BF2B
:10075C002C0900200008004002680E4B9A4200D081
:10076C00704700B583B003F50233DA6942F0040236
:10077C00DA61DB6903F004030193019B002211464B
:10078C001E2000F079FA1E2000F086FA03B05DF806
:10079C0004FB00BF0008004008B50A480A4B036080
:1007AC004FF4E133436000238360C36003610C2288
:1007BC0042618361C36101F079FB00B908BDFFF7A9
:1007CC0079FEFBE7740900200038014010B586B0B3
:1007DC00002302930393049305930268174B9A42E8
:1007EC0001D006B010BD03F558439A6942F480421B
:1007FC009A619A6902F480420092009A9A6942F0D6
:10080C0004029A619B6903F004030193019B4FF46A
:10081C00007302930223039303230593084C02A94C
:10082C00204600F031FB4FF48063029300230393C6
:10083C00049302A9204600F027FBD2E700380140C0
:10084C0000080140FFF72EFF0B480C490C4A00230F
:10085C0002E0D458C4500433C4188C42F9D3094A6A
:10086C00094C002301E013600432A242FBD301F0D7
:10087C00F1FBFFF77BFE704700000020100000200A
:10088C00C821000810000020580B0020FEE70000D3
:10089C0010B504460E4B1A784FF47A73B3FBF2F38F
:1008AC000C4A1068B0FBF3F000F004FA68B90F2C96
:1008BC0001D901200AE0002221464FF0FF3000F060
:1008CC00DBF9054B1C60002000E0012010BD00BFCF
:1008DC0004000020000000200800002008B5074A92
:1008EC00136843F010031360032000F0B3F90F20DA
:1008FC00FFF7CEFFFFF77AFE002008BD0020024074
:10090C00034A1168034B1B780B441360704700BFFC
:10091C00BC09002004000020014B1868704700BF80
:10092C00BC09002038B50446FFF7F6FF0546B4F1C4
:10093C00FF3F02D0044B1B781C44FFF7EDFF401B1C
:10094C00A042FAD338BD00BF0400002030B482B0FE
:10095C000022019290F82420012A00F08F80034697
:10096C00012280F824204A68062A2DD80468606B7E
:10097C0002EB8202053A4FF01F0C0CFA02FC20EA43
:10098C000C000D6805FA02F2024362630A68092A38
:10099C0038D91C68E06802EB42021E3A4FF0070C93
:1009AC000CFA02FC20EA0C008D6805FA02F20243F4
:1009BC00E2600A68103A012A34D90020002283F838
:1009CC00242002B030BC70470C2A0DD80568286B67
:1009DC0002EB8202233A1F24944020EA04000C68A4
:1009EC00944020432863D1E70568E86A02EB820251
:1009FC00413A1F24944020EA04000C6894402043A0
:100A0C00E862C3E71C68206902EB42024FF0070C56
:100A1C000CFA02FC20EA0C008D6805FA02F2024383
:100A2C002261C6E71A681648824205D09A6A42F0DB
:100A3C0020029A620120C1E7906810F4000F1BD1CC
:100A4C00906840F4000090600A68102A01D00020E1
:100A5C00B4E70C4A12680C49A1FB0212920C02EB8F
:100A6C0082025200019202E0019A013A0192019A2B
:100A7C00002AF9D10020A1E700209FE70220A0E77F
:100A8C00002401400000002083DE1B4338B50368BE
:100A9C009A6812F0010F01D1002038BD04469A6803
:100AAC0022F001029A60FFF737FF054623689B6826
:100ABC0013F0010F13D0FFF72FFF431B022BF5D9B7
:100ACC0023689B6813F0010FF0D0A36A43F0100366
:100ADC00A362E36A43F00103E3620120DDE7002037
:100AEC00DBE7000000287BD070B50446836A002B3E
:100AFC004DD02046FFF7CAFFA36A13F0100369D14B
:100B0C00002867D1A26A22F4885222F0020242F035
:100B1C000202A2626268E1690A43217B42EA410255
:100B2C00A568B5F5807F02D0012D36D01D46267DF7
:100B3C00012E35D02668716821F469412943716012
:100B4C002568AE68274931401143A960A168B1F509
:100B5C00807F01D0012902D12369013B1B05256847
:100B6C00E96A21F470010B43EB62236899681E4B10
:100B7C000B409A4225D0A36A23F0120343F01003D2
:100B8C00A362E36A43F00103E362012027E0C3623E
:100B9C0080F82430FFF754FBABE74FF48075C6E7C1
:100BAC0031B9A169013945EA413141F40065C1E728
:100BBC00A16A41F02001A162E16A41F00101E16208
:100BCC00B8E70023E362A36A23F0030343F00103B5
:100BDC00A36204E0A36A43F01003A362012070BD7A
:100BEC0001207047FDF7E1FFFE0E1FFF002808DB18
:100BFC000901C9B200F1604000F5614080F80013B2
:100C0C00704700F00F000901C9B2014B195470472D
:100C1C0014ED00E000B500F00700C0F1070CBCF1CA
:100C2C00040F28BF4FF0040C031D062B0FD9C31E55
:100C3C004FF0FF3E0EFA0CF021EA000199400EFA3B
:100C4C0003FE22EA0E0241EA02005DF804FB0023D7
:100C5C00EEE70000074AD36823F4E0631B041B0C87
:100C6C00000200F4E060034343F0BF6343F400333D
:100C7C00D360704700ED00E010B50446054BD86812
:100C8C00C0F30220FFF7C6FF01462046FFF7AEFF78
:100C9C0010BD00BF00ED00E0002807DB00F01F02D4
:100CAC00400901239340024A42F82030704700BFAC
:100CBC0000E100E00138B0F1807F0BD24FF0E0236F
:100CCC005861054AF02182F8231000209861072210
:100CDC001A6170470120704700ED00E050B310B46A
:100CEC0002460168144B0B441448A0FB03031B0978
:100CFC009B001364124BD363022382F821300868E3
:100D0C006FF30D10536894682343D468234314691C
:100D1C0023435469234394692343D46923430343F2
:100D2C000B6000209063012382F8213082F82000B0
:100D3C0010BC704701207047F8FFFDBFCDCCCCCC68
:100D4C000000024038B5C36B1A6804682568016C52
:100D5C0004238B40134235D015F0040F32D0236896
:100D6C0013F0200F03D1236823F0040323600368DE
:100D7C00434A934214D01432934218D01432934203
:100D8C0017D01432934217D01432934217D0143226
:100D9C00934202D04FF0806203E04FF4800200E0F7
:100DAC000422384B5A60C36A03B1984738BD4022BD
:100DBC00F7E74FF48062F4E74FF48042F1E74FF429
:100DCC008022EEE702238B4013423CD015F0020F39
:100DDC0039D0236813F0200F06D1236823F00A03BF
:100DEC002360012380F821300368254A934214D0F4
:100DFC00143293421CD0143293421BD014329342BF
:100E0C001BD0143293421BD01432934202D04FF0B9
:100E1C00007203E04FF4001200E00222194B5A60FA
:100E2C00002380F82030836A002BBFD09847BDE7A1
:100E3C002022F3E74FF40072F0E74FF40052EDE795
:100E4C004FF40032EAE708238B401342AED015F082
:100E5C00080FABD0236823F00E032360026CC16B28
:100E6C00012303FA02F24A60836380F821300023E5
:100E7C0080F82030036B002B98D0984796E700BF82
:100E8C00080002400000024070B582B00024A44665
:100E9C00A1E07E4DAB4214D00CD8A5F58015AB4229
:100EAC000FD005F57025AB420BD0A5F58015AB42E4
:100EBC0010D106E0764DAB4203D005F58035AB4240
:100ECC0008D18B68002B50D0012B49D042610824EB
:100EDC0000E0CC68BEF1FF0F49D806464FEA8C0201
:100EEC0033680F25954023EA050304FA02F21343F5
:100EFC0033604B6813F0805F6BD0664B9A6942F09D
:100F0C0001029A619B6903F001030193019B4FEA73
:100F1C009C02951C604B53F825600CF00305AD004A
:100F2C000F23AB4026EA03065C4B984226D003F510
:100F3C008063984200F08C8003F58063984200F047
:100F4C00898003F58063984216D0042317E0CC689F
:100F5C000434BFE7CC680834BCE7CC680C34B9E780
:100F6C0002610824B6E70024B4E70424B2E7061DA6
:100F7C00ACF108029200B3E7032300E00023AB407E
:100F8C0033430232444D45F822304B6813F4801F32
:100F9C0062D0434A936843EA0E0393604B6813F4A0
:100FAC00001F5FD03E4AD36843EA0E03D3604B6800
:100FBC0013F4003F5CD03A4A536843EA0E03536083
:100FCC004B6813F4803F59D0354A136843EA0E033B
:100FDC0013600CF1010C0B6833FA0CF254D00122A3
:100FEC0002FA0CF203EA020E32EA0303F1D14B6867
:100FFC00122B3FF64EAF122B3FF66CAF01A555F8F6
:10100C0023F000BFCF0E0008DF0E0008610F0008B0
:10101C00730F0008E10E0008E10E0008E10E000855
:10102C00E10E0008E10E0008E10E0008E10E0008D8
:10103C00E10E0008E10E0008E10E0008E10E0008C8
:10104C00E10E0008E10E00085B0F0008670F0008B6
:10105C00012394E7022392E7114A936823EA0E03D3
:10106C0093609BE70E4AD36823EA0E03D3609EE796
:10107C000B4A536823EA0E035360A1E7084A13682E
:10108C0023EA0E031360A4E702B070BD0000221027
:10109C000000311000100240000001400008014027
:1010AC00000401400AB101617047090401617047F5
:1010BC0003685A6912F4806F01D1002070476FF4F5
:1010CC0080625A6100230363202280F83D2080F85F
:1010DC003E30026C42F00402026480F83C30012085
:1010EC0070472DE9F04106460C46174698463BE002
:1010FC00FFF712FC069BC01A404502D8B8F1000F4E
:10110C0032D1012D18D033689B6924EA03039BB2BA
:10111C00B3FA83F35B099F4226D100233363202269
:10112C0086F83D2086F83E30326C42F02002326464
:10113C0086F83C30012027E033685B6924EA03031E
:10114C009BB2B3FA83F35B09E5E733685B6924EA86
:10115C00030C1FFA8CFCBCFA8CFC4FEA5C1C674538
:10116C0011D1B8F1FF3FC3D1C4F30745012DECD029
:10117C0033689B6924EA030C1FFA8CFCBCFA8CFCC8
:10118C004FEA5C1CEBE70020BDE8F0812DE9F84349
:10119C0005460E469046994653E01A6842F4007292
:1011AC001A602B686FF480625A6100232B63202233
:1011BC0085F83D2085F83E302A6C42F004022A6402
:1011CC0085F83C3001204AE0FFF7A6FBA0EB0900B4
:1011DC00404502D8B8F1000F33D1012F17D02B683E
:1011EC009B6926EA03039BB2003B18BF012343B360
:1011FC0000232B63202285F83D2085F83E302A6C95
:10120C0042F020022A6485F83C30012027E02B684C
:10121C005B6926EA03039BB2003B18BF0123E6E798
:10122C002B689C6926EA0404A4B2003C18BF012474
:10123C00A4B12B685A6912F4806FAED1B8F1FF3F9C
:10124C00C2D1C6F30747012FEAD12B685C6926EAA5
:10125C000404A4B2003C18BF0124E9E70020BDE857
:10126C00F88370B504460D46164623685B6913F087
:10127C00800F21D12046FFF71BFFF8B9B5F1FF3FD6
:10128C00F3D0FFF749FB801BA84201D8002DECD10D
:10129C0023685B6913F0800FE7D1002323632022BE
:1012AC0084F83D2084F83E30226C42F02002226407
:1012BC0084F83C30012000E0002070BD0120FCE7E8
:1012CC002DE9F04385B004460D4691461F46DDF8E6
:1012DC0030800D9E0368196841F480711960009686
:1012EC00434600224FF00111FFF7FBFE60B9236863
:1012FC0005F0FE051D613346424626492046FFF7A0
:10130C0045FF68B1012008E023681B6813F4807F57
:10131C0002D04FF400732364032005B0BDE8F083C2
:10132C000023039323685A6903929B690393039BDD
:10133C00324641462046FFF794FF30B9012F0FD1BA
:10134C0023685FFA89F61E61E7E7236C042B01D052
:10135C000120E2E72268136843F400731360F7E797
:10136C0023684FEA19221A61324641462046FFF79C
:10137C0078FF20B923685FFA89F61E61CDE7236CEC
:10138C00042B01D00120C8E72268136843F40073D2
:10139C001360F7E70200010070B504460D461646CF
:1013AC0023685B6913F0040F21D12046FFF780FE00
:1013BC00F8B9B5F1FF3FF3D0FFF7AEFA801BA842A6
:1013CC0001D8002DECD123685B6913F0040FE7D131
:1013DC0000232363202284F83D2084F83E30226CC5
:1013EC0042F02002226484F83C30012000E000200E
:1013FC0070BD0120FCE70000002800F0CC8070B527
:10140C00044690F83D30002B77D0242384F83D30EF
:10141C002268136823F0010313602268136843F4F5
:10142C00004313602268136823F40043136000F038
:10143C007BF962685A4B9A4264D85A4B98428CBFDB
:10144C0000230123002B40F0A8805749A1FB003159
:10145C008B0C25686A6822F03F0242EA91426A606E
:10146C0021680A6A22F03F0266684D4DAE424FD8A1
:10147C00013313430B622168CA6922F44F4222F0F4
:10148C00FF026568464B9D424CD8431E6D00B3FB72
:10149C00F5F3013340F6FC70034278D0C3F30B0331
:1014AC001A43CA6121680B6823F0C003E269206A01
:1014BC00024313430B6021688B6823F4034323F02E
:1014CC00FF032269E068024313438B602168CB68F9
:1014DC0023F0FF036269A06902431343CB602268C7
:1014EC00136843F00103136000202064202384F868
:1014FC003D30206384F83E0070BD80F83C30FEF730
:10150C00A7FF82E7294B98428CBF0023012399E760
:10151C004FF4967505FB03F3254DA5FB03539B096F
:10152C000133A6E7A668BEB9431E05EB450CB3FB19
:10153C00FCF30133C3F30B03B3FA83F35B0943BB33
:10154C00C6B9431E05EB4505B3FBF5F30133C3F3F5
:10155C000B0343F40043A3E7431E05EB850C0CEB94
:10156C008C0CB3FBFCF30133C3F30B03B3FA83F31F
:10157C005B09E4E7431E05EB850505EB8505B3FB2D
:10158C00F5F30133C3F30B0343F4404388E704231F
:10159C0086E7012384E7012070470120ACE700BFF8
:1015AC00A08601007F841E0083DE1B43FF083D00E4
:1015BC00D34D62102DE9F04383B004460F4690469C
:1015CC0099460C9EFFF7A8F9054694F83D00C0B269
:1015DC00202803D0022003B0BDE8F0830095192326
:1015EC0001224B492046FFF77CFD002840F0898002
:1015FC0094F83C30012B00F08680012384F83C30B9
:10160C0023681A6812F0010F03D11A6842F0010224
:10161C001A602268136823F400631360212384F892
:10162C003D30402384F83E30002323640A9B6362E0
:10163C00BDF82C306385638D2385364BE3620195B1
:10164C0000964B46424639462046FFF739FE0028A5
:10165C005BD1238D002B35D02A4631462046FFF72F
:10166C0000FE20BB626A236812781A61626A531CFE
:10167C006362218D013989B22185638D9BB2013B57
:10168C009BB263852368586910F0040FE1D00029E0
:10169C00DFD052781A61636A01336362238D013B98
:1016AC002385638D9BB2013B9BB26385D1E7236C91
:1016BC00042B01D001208EE72268136843F40073D9
:1016CC001360F7E72A4631462046FFF765FE50B116
:1016DC00236C042B01D001207DE72268136843F4AE
:1016EC0000731360F7E72268136843F40073136008
:1016FC00202384F83D30002384F83E3084F83C30BD
:10170C0069E7022067E7022065E7012063E700BF75
:10171C00020010000000FFFF006C7047014B1868BE
:10172C00704700BF0000002008B5FFF7F7FF044B1F
:10173C005B68C3F30223034AD35CD84008BD00BFE7
:10174C00001002409821000808B5FFF7E7FF044B92
:10175C005B68C3F3C223034AD35CD84008BD00BF07
:10176C00001002409821000830B4026A036A23F08A
:10177C00010303624568836923F073030C681C43FF
:10178C0022F002028B6813430B4A904206D045604C
:10179C0084614A684263036230BC704723F00803DB
:1017AC00CA681A4322F0040325F440754A692A4397
:1017BC008D691543EBE700BF002C014030B4036A80
:1017CC00026A22F4807202624468C26922F07302D7
:1017DC000D68154323F400738A6843EA02230D4A0B
:1017EC00904206D04460C5614A68C263036230BC53
:1017FC00704723F40063CA6843EA022323F480632E
:10180C0024F440544A6944EA02148A6944EA0214F2
:10181C00E8E700BF002C014030B4036A026A22F4EE
:10182C00805202624468C26922F4E6420D6842EAC0
:10183C00052223F400538D6843EA0533074DA84273
:10184C0006D04460C2614A680264036230BC7047CF
:10185C0024F480444D6944EA8514F2E7002C0140DD
:10186C0010B4036A046A24F001040462846924F04D
:10187C00F00C4CEA021223F00A030B438261036260
:10188C0010BC704710B4036A046A24F0100404629C
:10189C00846924F4704C4CEA023223F0A00343EA2E
:1018AC0001138261036210BC7047836823F07003DC
:1018BC000B4343F0070383607047704770477047D2
:1018CC0070477047704770B504460368DE681D6941
:1018DC0015F0020F10D016F0020F0DD06FF00202AF
:1018EC001A610123037703689B6913F0030F5ED021
:1018FC00FFF7E6FF0023237715F0040F12D016F044
:10190C00040F0FD023686FF004021A6102232377AF
:10191C0023689B6913F4407F4FD02046FFF7D0FF1C
:10192C000023237715F0080F12D016F0080F0FD0F4
:10193C0023686FF008021A61042323772368DB699C
:10194C0013F0030F40D02046FFF7BAFF0023237794
:10195C0015F0100F12D016F0100F0FD023686FF087
:10196C0010021A61082323772368DB6913F4407F84
:10197C0031D02046FFF7A4FF0023237715F0010F89
:10198C0002D016F0010F2DD115F0800F02D016F0F9
:10199C00800F2FD115F0400F02D016F0400F31D12F
:1019AC0015F0200F02D016F0200F33D170BDFFF7C9
:1019BC0086FF2046FFF785FF9CE72046FFF77FFF59
:1019CC002046FFF77EFFABE72046FFF778FF204667
:1019DC00FFF777FFBAE72046FFF771FF2046FFF7C6
:1019EC0070FFC9E723686FF001021A612046FFF708
:1019FC0065FFC9E723686FF080021A61204600F08A
:101A0C000AFAC7E723686FF040021A612046FFF715
:101A1C0059FFC5E723686FF020021A61204600F0D9
:101A2C00F9F9C3E703681F4A90420AD0B0F1804F1E
:101A3C0007D0A2F59432904203D002F58062904216
:101A4C0003D123F070034A681343164A90420AD01C
:101A5C00B0F1804F07D0A2F59432904203D002F53A
:101A6C008062904203D123F44073CA68134323F07D
:101A7C0080034A69134303608B68C3620B688362FB
:101A8C00084B98420AD001234361036913F0010FFC
:101A9C0003D0036923F00103036170470B690363EF
:101AAC00F1E700BF002C014040B310B5044690F89C
:101ABC003D30F3B1022384F83D30214651F8040B3C
:101ACC00FFF7B0FF012384F8463084F83E3084F8E9
:101ADC003F3084F8403084F8413084F8423084F848
:101AEC00433084F8443084F8453084F83D3000208D
:101AFC0010BD80F83C30FEF72FFEDBE7012070476D
:101B0C0040B310B5044690F83D30F3B1022384F88D
:101B1C003D30214651F8040BFFF784FF012384F874
:101B2C00463084F83E3084F83F3084F8403084F8F6
:101B3C00413084F8423084F8433084F8443084F8DF
:101B4C00453084F83D30002010BD80F83C30FFF764
:101B5C00B4FEDBE70120704730B4036A026A22F05E
:101B6C00100202624468826922F4E6420D6842EA7D
:101B7C00052223F020038D6843EA05130C4DA8427F
:101B8C0006D0446082614A688263036230BC70474D
:101B9C0023F08003CD6843EA051323F0400324F4BB
:101BAC0040644D6944EA85048D6944EA8504E8E79C
:101BBC00002C014038B590F83C30012B66D004461F
:101BCC000D46012380F83C300C2A5AD8DFE802F08D
:101BDC00075959591B5959593059595944000068DA
:101BEC00FFF7C2FD2268936943F0080393612268F2
:101BFC00936923F0040393612268936929690B4369
:101C0C00936100203EE00068FFF7A6FF226893690D
:101C1C0043F4006393612268936923F480639361B6
:101C2C0022689369296943EA01239361002029E022
:101C3C000068FFF7C3FD2268D36943F00803D36142
:101C4C002268D36923F00403D3612268D36929691C
:101C5C000B43D361002015E00068FFF7DDFD22681F
:101C6C00D36943F40063D3612268D36923F480639E
:101C7C00D3612268D369296943EA0123D361002027
:101C8C0000E00120002384F83C3038BD0220FCE742
:101C9C0010B4846824F47F4C42EA03220A4342EADB
:101CAC000C02826010BC704790F83C30012B78D04D
:101CBC0010B50446012380F83C30022380F83D30F7
:101CCC000268936823F47F4323F0770393600B68D7
:101CDC00602B4CD023D8402B54D011D8202B03D0C0
:101CEC000AD80BB1102B05D119462068FFF7DDFD82
:101CFC00002028E0012026E0302BF5D0012022E046
:101D0C00502B0AD1CA6849680068FFF7A9FD502119
:101D1C002068FFF7CAFD002015E0012013E0B3F5A1
:101D2C00805F3AD0B3F5005F14D0702B37D1CB68FD
:101D3C004A6889680068FFF7ABFF2268936843F034
:101D4C00770393600020012384F83D30002384F84E
:101D5C003C3010BDCB684A6889680068FFF798FF73
:101D6C002268936843F4804393600020EBE7CA68D1
:101D7C0049680068FFF786FD60212068FFF795FD34
:101D8C000020E0E7CA6849680068FFF769FD402158
:101D9C002068FFF78AFD0020D5E70020D3E701205B
:101DAC00D1E702207047000090F83C20012A2CD08B
:101DBC0010B40346012280F83C20022280F83D201A
:101DCC0002685068946820F0700C086840EA0C00B7
:101DDC0050601A680E4882420AD0B2F1804F07D088
:101DEC00A0F59430824203D000F58060824204D189
:101DFC0024F08004496821439160012283F83D203E
:101E0C00002083F83C0010BC70470220704700BFD4
:101E1C00002C01407047704710B5044602681369E6
:101E2C0023F44053C1680B43136183680269134365
:101E3C0042691A430168CB6823F4B05323F00C03B6
:101E4C001343CB600268536923F4407381690B43DD
:101E5C0053610268134B9A4220D0FFF765FC02468F
:101E6C0002EB820202EB820263689B00B2FBF3F28C
:101E7C000D48A0FB02314909642303FB11231B010C
:101E8C003233A0FB03035B0903F0F00202EB0112F7
:101E9C0003F00F03216813448B6010BDFFF754FC53
:101EAC000246DDE7003801401F85EB5160B310B5E9
:101EBC00044690F8413013B3242384F8413022684F
:101ECC00D36823F40053D3602046FFF7A5FF2268A4
:101EDC00136923F4904313612268536923F02A0396
:101EEC0053612268D36843F40053D36000206064CC
:101EFC00202384F8413084F84230606310BD80F8B0
:101F0C004030FEF763FCD7E701207047014B1860A7
:101F1C00704700BF0000002000B587B08DF8170097
:101F2C004FF0FF330293012301930DF1170200923E
:101F3C00002278210248FFF73DFB07B05DF804FB57
:101F4C00D000002010B5002405E0044B185DFFF70D
:101F5C00E3FF0134E4B2182CF7D910BDA02100081E
:101F6C0008B54838C0B2FFF7D7FF08BD10B5044616
:101F7C00000940F01000FFF7CFFF04F00F00FFF74F
:101F8C00CBFF10BD38B5002509E00020FFF7C4FFDA
:101F9C000134E4B214F0800FF7D00135EDB2072D07
:101FAC0007D82846FFF7DCFF0020FFF7DFFF0024EF
:101FBC00F0E738BD70B5860747D0541E002A3ED0D6
:101FCC000346CAB201E0013C39D303F8012B9D074B
:101FDC00F9D1032C2CD9CDB205EB05250F2C1A46C3
:101FEC0005EB054534D9A4F1100C2CF00F0603F1C8
:101FFC00100EB6444FEA1C1CC2E90055C2E902554A
:10200C0010327245F8D10CF1010214F00C0F03EBF5
:10201C00021204F00F0C13D0ACF1040323F00303F1
:10202C000433134442F8045B9342FBD10CF00304D9
:10203C002CB1C9B21C4403F8011BA342FBD170BDE7
:10204C0064461346002CF4D1F9E703461446C0E766
:10205C00A446E1E770B50F4B0F4DAB42A3EB050661
:10206C0007D00024B61055F8043B01349847A6421B
:10207C00F9D800F07FF8094D094B5E1BAB424FEAD3
:10208C00A60606D0002455F8043B01349847A64216
:10209C00F9D870BDBC210008BC210008BC21000887
:1020AC00C4210008704700BF704700BF024B13B13A
:1020BC00024800F005B8704700000000D920000865
:1020CC00002301461A46184600F014B838B5074DDF
:1020DC00074C2C1BA41005D0013C55F8043D984727
:1020EC00002CF9D1BDE8384000F04AB8C8210008EE
:1020FC00C42100082DE9F8431B4D06462868984674
:10210C000F469146FFF7CEFF184B1C681CB328688E
:10211C0065681F2D22DC4EB96B1C0235636044F8D8
:10212C002570FFF7C1FF0020BDE8F883012304EB05
:10213C008501C1F88890D4F88821AB401A43022E4F
:10214C00C4F88821C1F80881E6D1D4F88C211A434F
:10215C00C4F88C21E0E7064C1C60D8E7FFF7A4FF1D
:10216C004FF0FF30E0E700BF0C000020C409002056
:10217C00C8090020F8B500BFF8BC08BC9E467047E3
:0C218C00F8B500BFF8BC08BC9E467047C8
:102198000000000001020304D580A83FD3408D1041
:1021A80002A1C8DA1281F0D971DB00A4A6AF000041
:0421B8000000000023
:0821BC00B920000875010008BC
:0421C4004D010008C1
:1021C80000127A000100000010000000C009002081
:040000050800085196
:00000001FF
