:020000040800F2
:10000000005000207D070008690500086B05000806
:100010006D0500086F05000871050008000000006C
:100020000000000000000000000000007305000850
:100030007505000800000000770500087905000834
:10004000C5070008C5070008C5070008C507000860
:10005000C5070008C5070008C5070008C507000850
:10006000C5070008C5070008C50700088105000886
:10007000C5070008C5070008C5070008C507000830
:10008000C5070008C5070008C5070008C507000820
:10009000C5070008C5070008C5070008C507000810
:1000A000C5070008C5070008C5070008C507000800
:1000B000C5070008C5070008CD050008C5070008EA
:1000C000C5070008C5070008C5070008C5070008E0
:1000D000C5070008C5070008C5070008C5070008D0
:1000E000C5070008C5070008C50700080000000094
:1000F0000000000000000000000000000000000000
:0C01000000000000000000005FF808F1A3
:10010C000348044B834202D0034B03B1184770479A
:10011C001000002010000020000000000548064BD5
:10012C001B1AD90F01EBA301491002D0034B03B1E9
:10013C00184770471000002010000020000000003D
:10014C0010B5064C237843B9FFF7DAFF044B13B113
:10015C000448AFF300800123237010BD1000002071
:10016C0000000000181B000808B5054B1BB1054921
:10017C000548AFF30080BDE80840FFF7CFBF00BFD4
:10018C000000000014000020181B000800B585B00A
:10019C0000230193029303931048114A0260836079
:1001AC00037303754FF42022C26143600123036182
:1001BC0000F02EFC60B901230193029306230393F4
:1001CC0001A9064800F058FB28B905B05DF804FBFE
:1001DC0000F020F9EFE700F01DF9F6E7A000002091
:1001EC000024014000B585B00023019302930393D2
:1001FC001148124A02608360037303754FF4602246
:10020C00C26143600123036100F002FC68B9022360
:10021C000193012302930323039301A9064800F0E1
:10022C002BFB28B905B05DF804FB00F0F3F8EEE702
:10023C0000F0F0F8F6E700BF700000200028014045
:10024C0010B588B0002304930593069307930368B5
:10025C002D4A934204D02D4A934238D008B010BD99
:10026C0004462B4B9A6942F400729A619A6902F423
:10027C0000720092009A9A6942F004029A619B699A
:10028C0003F004030193019B0223049303230593BE
:10029C0004A9204800F08EFD1F48204B036000236A
:1002AC00436083608022C2604FF4807202614FF41D
:1002BC008062426120228261C36100F0A5FC18B902
:1002CC00154B23625C62C9E700F0A4F8F8E7104B09
:1002DC009A6942F480629A619A6902F4806202928D
:1002EC00029A9A6942F004029A619B6903F0040332
:1002FC000393039B0C2304930323059304A9054840
:10030C0000F058FDAAE700BF00240140002801407E
:10031C0000100240000801402C00002008000240A0
:10032C0000B583B00A4B5A6942F001025A615B690D
:10033C0003F001030193019B002211460B2000F0F6
:10034C0031FC0B2000F03EFC03B05DF804FB00BF59
:10035C00001002402DE9F04188B00024049405946B
:10036C0006940794284B9A6942F020029A619A6984
:10037C0002F020020192019A9A6942F004029A61F9
:10038C009A6902F004020292029A9A6942F00802F7
:10039C009A619B6903F008030393039BDFF86C805D
:1003AC0022464FF48071404600F012FE184D224652
:1003BC00E021284600F00CFE01224FF48071284603
:1003CC0000F006FE40F6064304930594069404A937
:1003DC00284600F0EFFC4FF4807304930127059737
:1003EC0006940226079604A9404600F0E3FC4FF45D
:1003FC00F073049305970694079604A9284600F019
:10040C00D9FC08B0BDE8F0810010024000080140A2
:10041C00000C014072B6FEE708B5294A136823F0B8
:10042C00070343F002031360254B1B6803F007031B
:10043C00022BF9D1234A136843F480331360214B08
:10044C001B6813F4003FFAD01E4A536823F47C1344
:10045C0043F4E8135360136843F080731360194B33
:10046C001B6813F0007FFAD0164B5A6822F0F0028A
:10047C005A605A6822F4E06242F480625A605A6808
:10048C0022F460525A605A6822F0030242F00202CF
:10049C005A600C4B5B6803F00C03082BF9D10A482B
:1004AC0001F094F90F2000F089F938B9054A536826
:1004BC0023F4404343F40043536008BDFFF7AAFF05
:1004CC00002002400010024000A24A0400B5ADF525
:1004DC00805D81B000F098F9FFF79EFFFFF73AFFBF
:1004EC00FFF71EFF00F0EEF8FFF750FEFFF77AFE65
:1004FC0000F070F84FF480520021684601F026FAA3
:10050C0001F016FA01F0FCF9642000F0A1F9642066
:10051C0000F09EF9FBE7000082B00E4B9A6942F0A6
:10052C0001029A619A6902F001020092009ADA695A
:10053C0042F08052DA61DB6903F080530193019B36
:10054C00054A536823F0E06343F00073536002B034
:10055C00704700BF0010024000000140FEE7FEE7BC
:10056C00FEE7FEE7FEE770477047704708B500F0FE
:10057C005DF908BD08B50D4B1B681B6813F0020F25
:10058C000FD00B4B02225A600A4B1B88B3F5806FBD
:10059C0007D2591C074A1180074A1188074A22F8CA
:1005AC001310024800F064FB08BD00BF2C000020B3
:1005BC0000000240D0000020D4080020D40000200D
:1005CC0008B5024800F0DFFD08BD00BFD8080020C8
:1005DC007047000000B58FB000230A930B930C9367
:1005EC000D9308930993019302930393049305933A
:1005FC00069307932148224A026047224260836097
:10060C006322C26003618023836100F0ADFE28BBCE
:10061C004FF480530A930AA9184800F0A5FF00BBB9
:10062C00164800F0CDFEF8B9702308938023099387
:10063C0008A9124801F018F8C8B9602301933123B6
:10064C00029302230393002305930C2201A90B4868
:10065C0000F010FF70B90FB05DF804FBFFF7DAFE85
:10066C00D6E7FFF7D7FEDBE7FFF7D4FEDCE7FFF7B3
:10067C00D1FEE2E7FFF7CEFEEDE700BFD808002081
:10068C000008004002680E4B9A4200D0704700B53B
:10069C0083B003F50233DA6942F00402DA61DB69F4
:1006AC0003F004030193019B002211461E2000F06D
:1006BC0079FA1E2000F086FA03B05DF804FB00BF47
:1006CC000008004008B50A480A4B03604FF4E133B8
:1006DC00436000238360C36003610C224261836129
:1006EC00C36101F043F800B908BDFFF793FEFBE7C7
:1006FC00200900200038014010B586B00023029379
:10070C000393049305930268174B9A4201D006B0E9
:10071C0010BD03F558439A6942F480429A619A6974
:10072C0002F480420092009A9A6942F004029A61A3
:10073C009B6903F004030193019B4FF40073029334
:10074C000223039303230593084C02A9204600F0CF
:10075C0031FB4FF48063029300230393049302A9AB
:10076C00204600F027FBD2E700380140000801408A
:10077C00FFF72EFF0B480C490C4A002302E0D4581B
:10078C00C4500433C4188C42F9D3094A094C0023D1
:10079C0001E013600432A242FBD301F027F9FFF70A
:1007AC0095FE70470000002010000020601B000820
:1007BC0010000020040B0020FEE7000010B50446DA
:1007CC000E4B1A784FF47A73B3FBF2F30C4A1068A1
:1007DC00B0FBF3F000F004FA68B90F2C01D901203A
:1007EC000AE0002221464FF0FF3000F0DBF9054B08
:1007FC001C60002000E0012010BD00BF04000020A0
:10080C00000000200800002008B5074A136843F0D8
:10081C0010031360032000F0B3F90F20FFF7CEFF95
:10082C00FFF77AFE002008BD00200240034A116841
:10083C00034B1B780B441360704700BF6809002002
:10084C0004000020014B1868704700BF68090020A5
:10085C0038B50446FFF7F6FF0546B4F1FF3F02D06A
:10086C00044B1B781C44FFF7EDFF401BA042FAD34E
:10087C0038BD00BF0400002030B482B000220192C9
:10088C0090F82420012A00F08F800346012280F882
:10089C0024204A68062A2DD80468606B02EB820279
:1008AC00053A4FF01F0C0CFA02FC20EA0C000D6804
:1008BC0005FA02F2024362630A68092A38D91C68F5
:1008CC00E06802EB42021E3A4FF0070C0CFA02FCF5
:1008DC0020EA0C008D6805FA02F20243E2600A6815
:1008EC00103A012A34D90020002283F8242002B0C7
:1008FC0030BC70470C2A0DD80568286B02EB8202BD
:10090C00233A1F24944020EA04000C6894402043AE
:10091C002863D1E70568E86A02EB8202413A1F249A
:10092C00944020EA04000C6894402043E862C3E73A
:10093C001C68206902EB42024FF0070C0CFA02FC17
:10094C0020EA0C008D6805FA02F202432261C6E728
:10095C001A681648824205D09A6A42F020029A62BE
:10096C000120C1E7906810F4000F1BD1906840F48F
:10097C00000090600A68102A01D00020B4E70C4AED
:10098C0012680C49A1FB0212920C02EB820252007B
:10099C00019202E0019A013A0192019A002AF9D1DE
:1009AC000020A1E700209FE70220A0E700240140DF
:1009BC000000002083DE1B4338B503689A6812F0F0
:1009CC00010F01D1002038BD04469A6822F00102C3
:1009DC009A60FFF737FF054623689B6813F0010FF9
:1009EC0013D0FFF72FFF431B022BF5D923689B680D
:1009FC0013F0010FF0D0A36A43F01003A362E36A73
:100A0C0043F00103E3620120DDE70020DBE7000097
:100A1C0000287BD070B50446836A002B4DD020464D
:100A2C00FFF7CAFFA36A13F0100369D1002867D13E
:100A3C00A26A22F4885222F0020242F00202A2625E
:100A4C006268E1690A43217B42EA4102A568B5F577
:100A5C00807F02D0012D36D01D46267D012E35D04B
:100A6C002668716821F46941294371602568AE6874
:100A7C00274931401143A960A168B1F5807F01D0AD
:100A8C00012902D12369013B1B052568E96A21F480
:100A9C0070010B43EB62236899681E4B0B409A4222
:100AAC0025D0A36A23F0120343F01003A362E36A78
:100ABC0043F00103E362012027E0C36280F8243095
:100ACC00FFF7BEFBABE74FF48075C6E731B9A16900
:100ADC00013945EA413141F40065C1E7A16A41F0B1
:100AEC002001A162E16A41F00101E162B8E7002353
:100AFC00E362A36A23F0030343F00103A36204E05F
:100B0C00A36A43F01003A362012070BD012070475B
:100B1C00FDF7E1FFFE0E1FFF002808DB0901C9B23B
:100B2C0000F1604000F5614080F80013704700F060
:100B3C000F000901C9B2014B1954704714ED00E0C4
:100B4C0000B500F00700C0F1070CBCF1040F28BF82
:100B5C004FF0040C031D062B0FD9C31E4FF0FF3EA4
:100B6C000EFA0CF021EA000199400EFA03FE22EA7B
:100B7C000E0241EA02005DF804FB0023EEE70000E0
:100B8C00074AD36823F4E0631B041B0C000200F437
:100B9C00E060034343F0BF6343F40033D36070471A
:100BAC0000ED00E010B50446054BD868C0F30220F8
:100BBC00FFF7C6FF01462046FFF7AEFF10BD00BF92
:100BCC0000ED00E0002807DB00F01F0240090123C4
:100BDC009340024A42F82030704700BF00E100E029
:100BEC000138B0F1807F0BD24FF0E0235861054AF9
:100BFC00F02182F823100020986107221A617047B7
:100C0C000120704700ED00E050B310B402460168BB
:100C1C00144B0B441448A0FB03031B099B001364E7
:100C2C00124BD363022382F8213008686FF30D1046
:100C3C00536894682343D468234314692343546949
:100C4C00234394692343D469234303430B6000205B
:100C5C009063012382F8213082F8200010BC704789
:100C6C0001207047F8FFFDBFCDCCCCCC000002407A
:100C7C0038B5C36B1A6804682568016C04238B4073
:100C8C00134235D015F0040F32D0236813F0200F27
:100C9C0003D1236823F0040323600368434A93427F
:100CAC0014D01432934218D01432934217D0143209
:100CBC00934217D01432934217D01432934202D07D
:100CCC004FF0806203E04FF4800200E00422384BC6
:100CDC005A60C36A03B1984738BD4022F7E74FF416
:100CEC008062F4E74FF48042F1E74FF48022EEE7A4
:100CFC0002238B4013423CD015F0020F39D02368ED
:100D0C0013F0200F06D1236823F00A03236001237C
:100D1C0080F821300368254A934214D01432934250
:100D2C001CD0143293421BD0143293421BD0143279
:100D3C0093421BD01432934202D04FF0007203E066
:100D4C004FF4001200E00222194B5A60002380F885
:100D5C002030836A002BBFD09847BDE72022F3E7F1
:100D6C004FF40072F0E74FF40052EDE74FF400320D
:100D7C00EAE708238B401342AED015F0080FABD036
:100D8C00236823F00E032360026CC16B012303FA6A
:100D9C0002F24A60836380F82130002380F820300F
:100DAC00036B002B98D0984796E700BF08000240D1
:100DBC000000024070B582B00024A446A1E07E4D34
:100DCC00AB4214D00CD8A5F58015AB420FD005F56D
:100DDC007025AB420BD0A5F58015AB4210D106E0C7
:100DEC00764DAB4203D005F58035AB4208D18B680C
:100DFC00002B50D0012B49D04261082400E0CC6874
:100E0C00BEF1FF0F49D806464FEA8C0233680F2516
:100E1C00954023EA050304FA02F2134333604B684E
:100E2C0013F0805F6BD0664B9A6942F001029A61B5
:100E3C009B6903F001030193019B4FEA9C02951CF3
:100E4C00604B53F825600CF00305AD000F23AB404D
:100E5C0026EA03065C4B984226D003F58063984241
:100E6C0000F08C8003F58063984200F0898003F5D4
:100E7C008063984216D0042317E0CC680434BFE793
:100E8C00CC680834BCE7CC680C34B9E702610824A0
:100E9C00B6E70024B4E70424B2E7061DACF108025F
:100EAC009200B3E7032300E00023AB40334302324C
:100EBC00444D45F822304B6813F4801F62D0434AEE
:100ECC00936843EA0E0393604B6813F4001F5FD0E2
:100EDC003E4AD36843EA0E03D3604B6813F4003FD9
:100EEC005CD03A4A536843EA0E0353604B6813F4E0
:100EFC00803F59D0354A136843EA0E0313600CF156
:100F0C00010C0B6833FA0CF254D0012202FA0CF2E9
:100F1C0003EA020E32EA0303F1D14B68122B3FF6BF
:100F2C004EAF122B3FF66CAF01A555F823F000BF66
:100F3C00FB0D00080B0E00088D0E00089F0E00081C
:100F4C000D0E00080D0E00080D0E00080D0E000809
:100F5C000D0E00080D0E00080D0E00080D0E0008F9
:100F6C000D0E00080D0E00080D0E00080D0E0008E9
:100F7C000D0E0008870E0008930E0008012394E75D
:100F8C00022392E7114A936823EA0E0393609BE7CE
:100F9C000E4AD36823EA0E03D3609EE70B4A5368CC
:100FAC0023EA0E035360A1E7084A136823EA0E03F1
:100FBC001360A4E702B070BD0000221000003110D5
:100FCC0000100240000001400008014000040140F4
:100FDC000AB101617047090401617047014B18683F
:100FEC00704700BF0000002008B5FFF7F7FF044B67
:100FFC005B68C3F30223034AD35CD84008BD00BF2F
:10100C0000100240301B000808B5FFF7E7FF044B47
:10101C005B68C3F3C223034AD35CD84008BD00BF4E
:10102C0000100240301B000830B4026A036A23F03F
:10103C00010303624568836923F073030C681C4346
:10104C0022F002028B6813430B4A904206D0456093
:10105C0084614A684263036230BC704723F0080322
:10106C00CA681A4322F0040325F440754A692A43DE
:10107C008D691543EBE700BF002C014030B4036AC7
:10108C00026A22F4807202624468C26922F073021E
:10109C000D68154323F400738A6843EA02230D4A52
:1010AC00904206D04460C5614A68C263036230BC9A
:1010BC00704723F40063CA6843EA022323F4806375
:1010CC0024F440544A6944EA02148A6944EA02143A
:1010DC00E8E700BF002C014030B4036A026A22F436
:1010EC00805202624468C26922F4E6420D6842EA08
:1010FC00052223F400538D6843EA0533074DA842BB
:10110C0006D04460C2614A680264036230BC704716
:10111C0024F480444D6944EA8514F2E7002C014024
:10112C0010B4036A046A24F001040462846924F094
:10113C00F00C4CEA021223F00A030B4382610362A7
:10114C0010BC704710B4036A046A24F010040462E3
:10115C00846924F4704C4CEA023223F0A00343EA75
:10116C0001138261036210BC7047836823F0700323
:10117C000B4343F007038360704770477047704719
:10118C0070477047704770B504460368DE681D6988
:10119C0015F0020F10D016F0020F0DD06FF00202F6
:1011AC001A610123037703689B6913F0030F5ED068
:1011BC00FFF7E6FF0023237715F0040F12D016F08B
:1011CC00040F0FD023686FF004021A6102232377F7
:1011DC0023689B6913F4407F4FD02046FFF7D0FF64
:1011EC000023237715F0080F12D016F0080F0FD03C
:1011FC0023686FF008021A61042323772368DB69E4
:10120C0013F0030F40D02046FFF7BAFF00232377DB
:10121C0015F0100F12D016F0100F0FD023686FF0CE
:10122C0010021A61082323772368DB6913F4407FCB
:10123C0031D02046FFF7A4FF0023237715F0010FD0
:10124C0002D016F0010F2DD115F0800F02D016F040
:10125C00800F2FD115F0400F02D016F0400F31D176
:10126C0015F0200F02D016F0200F33D170BDFFF710
:10127C0086FF2046FFF785FF9CE72046FFF77FFFA0
:10128C002046FFF77EFFABE72046FFF778FF2046AE
:10129C00FFF777FFBAE72046FFF771FF2046FFF70D
:1012AC0070FFC9E723686FF001021A612046FFF74F
:1012BC0065FFC9E723686FF080021A61204600F0D1
:1012CC000AFAC7E723686FF040021A612046FFF75D
:1012DC0059FFC5E723686FF020021A61204600F021
:1012EC00F9F9C3E703681F4A90420AD0B0F1804F66
:1012FC0007D0A2F59432904203D002F5806290425E
:10130C0003D123F070034A681343164A90420AD063
:10131C00B0F1804F07D0A2F59432904203D002F581
:10132C008062904203D123F44073CA68134323F0C4
:10133C0080034A69134303608B68C3620B68836242
:10134C00084B98420AD001234361036913F0010F43
:10135C0003D0036923F00103036170470B69036336
:10136C00F1E700BF002C014040B310B5044690F8E3
:10137C003D30F3B1022384F83D30214651F8040B83
:10138C00FFF7B0FF012384F8463084F83E3084F830
:10139C003F3084F8403084F8413084F8423084F88F
:1013AC00433084F8443084F8453084F83D300020D4
:1013BC0010BD80F83C30FFF765F9DBE70120704782
:1013CC0040B310B5044690F83D30F3B1022384F8D5
:1013DC003D30214651F8040BFFF784FF012384F8BC
:1013EC00463084F83E3084F83F3084F8403084F83E
:1013FC00413084F8423084F8433084F8443084F827
:10140C00453084F83D30002010BD80F83C30FFF7AB
:10141C00B4FEDBE70120704730B4036A026A22F0A5
:10142C00100202624468826922F4E6420D6842EAC4
:10143C00052223F020038D6843EA05130C4DA842C6
:10144C0006D0446082614A688263036230BC704794
:10145C0023F08003CD6843EA051323F0400324F402
:10146C0040644D6944EA85048D6944EA8504E8E7E3
:10147C00002C014038B590F83C30012B66D0044666
:10148C000D46012380F83C300C2A5AD8DFE802F0D4
:10149C00075959591B595959305959594400006821
:1014AC00FFF7C2FD2268936943F008039361226839
:1014BC00936923F0040393612268936929690B43B0
:1014CC00936100203EE00068FFF7A6FF2268936955
:1014DC0043F4006393612268936923F480639361FE
:1014EC0022689369296943EA01239361002029E06A
:1014FC000068FFF7C3FD2268D36943F00803D3618A
:10150C002268D36923F00403D3612268D369296963
:10151C000B43D361002015E00068FFF7DDFD226866
:10152C00D36943F40063D3612268D36923F48063E5
:10153C00D3612268D369296943EA0123D36100206E
:10154C0000E00120002384F83C3038BD0220FCE789
:10155C0010B4846824F47F4C42EA03220A4342EA22
:10156C000C02826010BC704790F83C30012B78D094
:10157C0010B50446012380F83C30022380F83D303E
:10158C000268936823F47F4323F0770393600B681E
:10159C00602B4CD023D8402B54D011D8202B03D007
:1015AC000AD80BB1102B05D119462068FFF7DDFDC9
:1015BC00002028E0012026E0302BF5D0012022E08D
:1015CC00502B0AD1CA6849680068FFF7A9FD502161
:1015DC002068FFF7CAFD002015E0012013E0B3F5E9
:1015EC00805F3AD0B3F5005F14D0702B37D1CB6845
:1015FC004A6889680068FFF7ABFF2268936843F07C
:10160C00770393600020012384F83D30002384F895
:10161C003C3010BDCB684A6889680068FFF798FFBA
:10162C002268936843F4804393600020EBE7CA6818
:10163C0049680068FFF786FD60212068FFF795FD7B
:10164C000020E0E7CA6849680068FFF769FD40219F
:10165C002068FFF78AFD0020D5E70020D3E70120A2
:10166C00D1E702207047000090F83C20012A2CD0D2
:10167C0010B40346012280F83C20022280F83D2061
:10168C0002685068946820F0700C086840EA0C00FE
:10169C0050601A680E4882420AD0B2F1804F07D0CF
:1016AC00A0F59430824203D000F58060824204D1D0
:1016BC0024F08004496821439160012283F83D2085
:1016CC00002083F83C0010BC70470220704700BF1C
:1016DC00002C01407047704710B50446026813692E
:1016EC0023F44053C1680B431361836802691343AD
:1016FC0042691A430168CB6823F4B05323F00C03FE
:10170C001343CB600268536923F4407381690B4324
:10171C0053610268134B9A4220D0FFF765FC0246D6
:10172C0002EB820202EB820263689B00B2FBF3F2D3
:10173C000D48A0FB02314909642303FB11231B0153
:10174C003233A0FB03035B0903F0F00202EB01123E
:10175C0003F00F03216813448B6010BDFFF754FC9A
:10176C000246DDE7003801401F85EB5160B310B530
:10177C00044690F8413013B3242384F84130226896
:10178C00D36823F40053D3602046FFF7A5FF2268EB
:10179C00136923F4904313612268536923F02A03DD
:1017AC0053612268D36843F40053D3600020606413
:1017BC00202384F8413084F84230606310BD80F8F7
:1017CC004030FEF799FFD7E701207047014B1860B6
:1017DC00704700BF0000002000EBC00001E000BF1C
:1017EC001846431E0028FAD17047000038B504464D
:1017FC0000250EE080225A616400E4B20120FFF75C
:10180C00EBFF144B40221A610120FFF7E5FF013575
:10181C00EDB2072D09D80F4B40225A6114F0800FFE
:10182C00E8D00C4B80221A61E6E70A4C4025656132
:10183C000120FFF7D1FF802323610120FFF7CCFFAC
:10184C0025610120FFF7C8FF65610120FFF7C4FF88
:10185C0038BD00BF000C014070B50A4C80262661D3
:10186C000120FFF7B9FF402525610120FFF7B4FFE8
:10187C0066610320FFF7B0FF65617820FFF7B6FFC4
:10188C0070BD00BF000C014038B5064C8025656169
:10189C000120FFF7A1FF402323610320FFF79CFFEA
:1018AC00256138BD000C014010B50446FFF7D4FF8C
:1018BC000020FFF79BFF2046FFF798FFFFF7E4FFA0
:1018CC0010BD10B50446FFF7C7FF4020FFF78EFF91
:1018DC002046FFF78BFFFFF7D7FF10BD10B504466E
:1018EC00000940F01000FFF7DFFF04F00F00FFF7D6
:1018FC00DBFF10BD08B55038C0B2FFF7D5FF08BDEF
:10190C0038B5002509E0FF20FFF7DBFF0134E4B216
:10191C0014F0800FF7D00135EDB2072D07D828460B
:10192C00FFF7E8FF0020FFF7D9FF0024F0E738BDF0
:10193C0010B5002405E0044B185DFFF7B5FF01342A
:10194C00E4B2182CF7D910BD381B000870B5860707
:10195C0047D0541E002A3ED00346CAB201E0013CD7
:10196C0039D303F8012B9D07F9D1032C2CD9CDB217
:10197C0005EB05250F2C1A4605EB054534D9A4F1CA
:10198C00100C2CF00F0603F1100EB6444FEA1C1C81
:10199C00C2E90055C2E9025510327245F8D10CF17A
:1019AC00010214F00C0F03EB021204F00F0C13D015
:1019BC00ACF1040323F003030433134442F8045B37
:1019CC009342FBD10CF003042CB1C9B21C4403F8B4
:1019DC00011BA342FBD170BD64461346002CF4D10D
:1019EC00F9E703461446C0E7A446E1E770B50F4B90
:1019FC000F4DAB42A3EB050607D00024B61055F8EB
:101A0C00043B01349847A642F9D800F07FF8094D01
:101A1C00094B5E1BAB424FEAA60606D0002455F8D4
:101A2C00043B01349847A642F9D870BD541B0008FA
:101A3C00541B0008541B00085C1B0008704700BFB7
:101A4C00704700BF024B13B1024800F005B8704755
:101A5C0000000000711A0008002301461A461846BF
:101A6C0000F014B838B5074D074C2C1BA41005D04A
:101A7C00013C55F8043D9847002CF9D1BDE838409D
:101A8C0000F04AB8601B00085C1B00082DE9F84305
:101A9C001B4D0646286898460F469146FFF7CEFF29
:101AAC00184B1C681CB3286865681F2D22DC4EB9C6
:101ABC006B1C0235636044F82570FFF7C1FF0020F2
:101ACC00BDE8F883012304EB8501C1F88890D4F8B4
:101ADC008821AB401A43022EC4F88821C1F8088132
:101AEC00E6D1D4F88C211A43C4F88C21E0E7064CDB
:101AFC001C60D8E7FFF7A4FF4FF0FF30E0E700BF12
:101B0C000C0000207009002074090020F8B500BFFB
:101B1C00F8BC08BC9E467047F8B500BFF8BC08BCC2
:041B2C009E4670471A
:101B30000000000001020304AED580A83FD300409E
:101B40008D102002A1C8DA1281F0D971DB00A4A6A1
:041B5000AF000000E2
:081B5400511A00087501000898
:041B5C004D0100082F
:101B600000127A0001000000100000006C09002043
:040000050800077D6B
:00000001FF
