:020000040800F2
:1000000000500020D11500083D1300083F130008E0
:1000100041130008431300084513000800000000C6
:10002000000000000000000000000000471300086E
:1000300049130008000000004B1300084D1300088E
:1000400019160008191600081916000819160008D4
:1000500019160008191600081916000819160008C4
:10006000191600081916000819160008551300087B
:1000700019160008191600081916000819160008A4
:100080001916000819160008191600081916000894
:100090001916000819160008191600081916000884
:1000A0001916000819160008191600081916000874
:1000B0001916000819160008A113000819160008DF
:1000C0001916000819160008191600081916000854
:1000D0001916000819160008191600081916000844
:1000E000191600081916000819160008000000006B
:1000F0000000000000000000000000000000000000
:0C01000000000000000000005FF808F1A3
:1001100081F0004102E000BF83F0004330B54FEAB8
:1001200041044FEA430594EA050F08BF90EA020F25
:100130001FBF54EA000C55EA020C7FEA645C7FEAB8
:10014000655C00F0E2804FEA5454D4EB5555B8BFDB
:100150006D420CDD2C4480EA020281EA030382EA4C
:10016000000083EA010180EA020281EA0303362DDE
:1001700088BF30BD11F0004F4FEA01314FF4801CB1
:100180004CEA113102D0404261EB410113F0004FC3
:100190004FEA03334CEA133302D0524263EB43037A
:1001A00094EA050F00F0A780A4F10104D5F1200E18
:1001B0000DDB02FA0EFC22FA05F2801841F1000173
:1001C00003FA0EF2801843FA05F359410EE0A5F147
:1001D00020050EF1200E012A03FA0EFC28BF4CF078
:1001E000020C43FA05F3C01851EBE37101F000452E
:1001F00007D54FF0000EDCF1000C7EEB00006EEB3B
:100200000101B1F5801F1BD3B1F5001F0CD34908C4
:100210005FEA30004FEA3C0C04F101044FEA44521B
:1002200012F5800F80F09A80BCF1004F08BF5FEAA2
:10023000500C50F1000041EB045141EA050130BD82
:100240005FEA4C0C404141EB0101013C28BFB1F594
:10025000801FE9D291F0000F04BF01460020B1FADF
:1002600081F308BF2033A3F10B03B3F120020CDAB2
:100270000C3208DD02F1140CC2F10C0201FA0CF090
:1002800021FA02F10CE002F11402D8BFC2F1200CF5
:1002900001FA02F120FA0CFCDCBF41EA0C019040AB
:1002A000E41AA2BF01EB0451294330BD6FEA0404F4
:1002B0001F3C1CDA0C340EDC04F11404C4F12002DF
:1002C00020FA04F001FA02F340EA030021FA04F3F1
:1002D00045EA030130BDC4F10C04C4F1200220FA48
:1002E00002F001FA04F340EA0300294630BD21FA86
:1002F00004F0294630BD94F0000F83F4801306BF4C
:1003000081F480110134013D4EE77FEA645C18BF3F
:100310007FEA655C29D094EA050F08BF90EA020FD6
:1003200005D054EA000C04BF1946104630BD91EACE
:10033000030F1EBF0021002030BD5FEA545C05D1D1
:100340004000494128BF41F0004130BD14F5800410
:100350003CBF01F5801130BD01F0004545F0FE4184
:1003600041F470014FF0000030BD7FEA645C1ABFB9
:10037000194610467FEA655C1CBF0B46024650EAF0
:10038000013406BF52EA033591EA030F41F400211C
:1003900030BD00BF90F0000F04BF0021704730B5A2
:1003A0004FF4806404F132044FF000054FF0000177
:1003B00050E700BF90F0000F04BF0021704730B538
:1003C0004FF4806404F1320410F0004548BF40420D
:1003D0004FF000013EE700BF42004FEAE2014FEA62
:1003E00031014FEA02701FBF12F07F4393F07F4F3D
:1003F00081F06051704732F07F4208BF704793F040
:100400007F4F04BF41F40021704730B54FF4607452
:1004100001F0004521F000411CE700BF50EA010255
:1004200008BF704730B54FF000050AE050EA0102FE
:1004300008BF704730B511F0004502D5404261EB6E
:1004400041014FF4806404F132045FEA915C3FF4AF
:10045000D8AE4FF003025FEADC0C18BF03325FEA4C
:10046000DC0C18BF033202EBDC02C2F1200300FAFD
:1004700003FC20FA02F001FA03FE40EA0E0021FA22
:1004800002F11444BDE600BF70B54FF0FF0C4CF410
:10049000E06C1CEA11541DBF1CEA135594EA0C0FC2
:1004A00095EA0C0F00F0DEF82C4481EA030621EAFD
:1004B0004C5123EA4C5350EA013518BF52EA033538
:1004C00041F4801143F4801338D0A0FB02CE4FF0EA
:1004D0000005E1FB02E506F00042E0FB03E54FF01A
:1004E0000006E1FB03569CF0000F18BF4EF0010E12
:1004F000A4F1FF04B6F5007F64F5407404D25FEA0E
:100500004E0E6D4146EB060642EAC62141EA5551C0
:100510004FEAC52040EA5E504FEACE2EB4F1FD0C02
:1005200088BFBCF5E06F1ED8BEF1004F08BF5FEA80
:10053000500E50F1000041EB045170BD06F0004632
:1005400046EA010140EA020081EA0301B4EB5C04DF
:10055000C2BFD4EB0C0541EA045170BD41F48011D7
:100560004FF0000E013C00F3AB8014F1360FDEBFFC
:10057000002001F0004170BDC4F10004203C35DAD8
:100580000C341BDC04F11404C4F1200500FA05F35B
:1005900020FA04F001FA05F240EA020001F00042FC
:1005A00021F0004110EBD37021FA04F642EB060172
:1005B0005EEA430E08BF20EAD37070BDC4F10C049C
:1005C000C4F1200500FA04F320FA05F001FA04F260
:1005D00040EA020001F0004110EBD37041F100014C
:1005E0005EEA430E08BF20EAD37070BDC4F1200557
:1005F00000FA05F24EEA020E20FA04F301FA05F2BF
:1006000043EA020321FA04F001F0004121FA04F266
:1006100020EA020000EBD3705EEA430E08BF20EA36
:10062000D37070BD94F0000F0FD101F00046400070
:1006300041EB010111F4801F08BF013CF7D041EAF2
:10064000060195F0000F18BF704703F000465200F6
:1006500043EB030313F4801F08BF013DF7D043EAC7
:100660000603704794EA0C0F0CEA135518BF95EA7D
:100670000C0F0CD050EA410618BF52EA4306D1D104
:1006800081EA030101F000414FF0000070BD50EA23
:10069000410606BF1046194652EA430619D094EAAD
:1006A0000C0F02D150EA013613D195EA0C0F05D197
:1006B00052EA03361CBF104619460AD181EA0301EB
:1006C00001F0004141F0FE4141F470014FF00000A3
:1006D00070BD41F0FE4141F4780170BD70B54FF03E
:1006E000FF0C4CF4E06C1CEA11541DBF1CEA1355BE
:1006F00094EA0C0F95EA0C0F00F0A7F8A4EB0504A0
:1007000081EA030E52EA03354FEA013100F0888096
:100710004FEA03334FF0805545EA131343EA12635F
:100720004FEA022245EA111545EA10654FEA002614
:100730000EF000419D4208BF964244F1FD0404F5CD
:10074000407402D25B084FEA3202B61A65EB030529
:100750005B084FEA32024FF480104FF4002CB6EBE6
:10076000020E75EB030E22BFB61A754640EA0C0066
:100770005B084FEA3202B6EB020E75EB030E22BFA6
:10078000B61A754640EA5C005B084FEA3202B6EBE7
:10079000020E75EB030E22BFB61A754640EA9C00A6
:1007A0005B084FEA3202B6EB020E75EB030E22BF76
:1007B000B61A754640EADC0055EA060E18D04FEA34
:1007C000051545EA16754FEA06164FEAC30343EAD4
:1007D00052734FEAC2025FEA1C1CC0D111F4801FA1
:1007E0000BD141EA00014FF000004FF0004CB6E79A
:1007F00011F4801F04BF01430020B4F1FD0C88BF39
:10080000BCF5E06F3FF6AFAEB5EB030C04BFB6EB43
:10081000020C5FEA500C50F1000041EB045170BD36
:100820000EF0004E4EEA113114EB5C04C2BFD4EB63
:100830000C0541EA045170BD41F480114FF0000EE7
:10084000013C90E645EA060E8DE60CEA135594EA63
:100850000C0F08BF95EA0C0F3FF43BAF94EA0C0F66
:100860000AD150EA01347FF434AF95EA0C0F7FF4DB
:1008700025AF104619462CE795EA0C0F06D152EA2F
:1008800003353FF4FDAE1046194622E750EA410613
:1008900018BF52EA43067FF4C5AE50EA41047FF424
:1008A0000DAF52EA43057FF4EBAE12E74FEA410287
:1008B00012F5001215D211D56FF47873B3EB6252B2
:1008C00012D94FEAC12343F0004343EA505311F0D9
:1008D000004F23FA02F018BF404270474FF000006B
:1008E000704750EA013005D111F0004008BF6FF0A9
:1008F000004070474FF00000704700BF80F000409C
:1009000002E000BF81F0004142001FBF5FEA4103E7
:1009100092EA030F7FEA226C7FEA236C6AD04FEAE7
:100920001262D2EB1363C1BFD2184140484041402C
:10093000B8BF5B42192B88BF704710F0004F40F4DE
:10094000000020F07F4018BF404211F0004F41F4FA
:10095000000121F07F4118BF494292EA030F3FD0C6
:10096000A2F1010241FA03FC10EB0C00C3F12003D9
:1009700001FA03F100F0004302D5494260EB400068
:10098000B0F5000F13D3B0F1807F06D340084FEAD3
:10099000310102F10102FE2A51D2B1F1004F40EBC8
:1009A000C25008BF20F0010040EA03007047490030
:1009B00040EB0000013A28BFB0F5000FEDD2B0FACD
:1009C00080FCACF1080CB2EB0C0200FA0CF0AABFF0
:1009D00000EBC25052421843BCBFD040184370478E
:1009E00092F0000F81F4000106BF80F40000013294
:1009F000013BB5E74FEA41037FEA226C18BF7FEA6B
:100A0000236C21D092EA030F04D092F0000F08BFAC
:100A10000846704790EA010F1CBF0020704712F093
:100A20007F4F04D1400028BF40F00040704712F1D2
:100A300000723CBF00F50000704700F0004343F037
:100A4000FE4040F4000070477FEA226216BF08466D
:100A50007FEA23630146420206BF5FEA412390EA30
:100A6000010F40F4800070474FF0000304E000BF26
:100A700010F0004348BF40425FEA000C08BF7047D7
:100A800043F0964301464FF000001CE050EA01029B
:100A900008BF70474FF000030AE000BF50EA0102B0
:100AA00008BF704711F0004302D5404261EB41019D
:100AB0005FEA010C02BF84460146002043F0B643C2
:100AC00008BFA3F18053A3F50003BCFA8CF2083AE7
:100AD000A3EBC25310DB01FA02FC634400FA02FCF0
:100AE000C2F12002BCF1004F20FA02F243EB0200F7
:100AF00008BF20F00100704702F1200201FA02FC59
:100B0000C2F1200250EA4C0021FA02F243EB02004B
:100B100008BF20EADC707047844641EA000313F006
:100B2000030349D1403A23D30B6803604B68436009
:100B30008B688360CB68C3600B6903614B69436159
:100B40008B698361CB69C3610B6A03624B6A436241
:100B50008B6A8362CB6AC3620B6B03634B6B436329
:100B60008B6B8363CB6BC36340304031403ADBD245
:100B700030320BD30B6803604B6843608B68836033
:100B8000CB68C36010301031103AF3D20C3205D369
:100B900051F8043B40F8043B043AF9D2043208D03F
:100BA000D2071CBF11F8013B00F8013B01D30B88B1
:100BB00003806046704700BF082A13D38B07B1D06B
:100BC00010F00303AED0C3F10403D21ADB071CBF3D
:100BD00011F8013B00F8013BA4D331F8023B20F8A7
:100BE000023B9FE7043AD9D3013A11F8013B00F8E0
:100BF000013BF9D20B7803704B7843708B7883708C
:100C0000604670474FF0FF3C06E000BF4FF0010C1C
:100C100002E000BF4FF0010C4DF804CD4FEA410C4B
:100C20007FEA6C5C4FEA430C18BF7FEA6C5C1BD018
:100C300001B050EA410C0CBF52EA430C91EA030F99
:100C400002BF90EA020F0020704710F1000F91EAF6
:100C5000030F58BF994208BF90422CBFD8176FEAC4
:100C6000E37040F0010070474FEA410C7FEA6C5C92
:100C700002D150EA013C07D14FEA430C7FEA6C5C99
:100C8000D6D152EA033CD3D05DF8040B704700BFC5
:100C90008446104662468C461946634600E000BF13
:100CA00001B5FFF7B7FF002848BF10F1000F01BDE5
:100CB0004DF808EDFFF7F4FF0CBF012000205DF8B0
:100CC00008FB00BF4DF808EDFFF7EAFF34BF012035
:100CD00000205DF808FB00BF4DF808EDFFF7E0FFCE
:100CE00094BF012000205DF808FB00BF4DF808ED1F
:100CF000FFF7CEFF94BF012000205DF808FB00BF86
:100D00004DF808EDFFF7C4FF34BF012000205DF867
:100D100008FB00BF4FEA410C7FEA6C5C02D150EA4D
:100D2000013C0AD14FEA430C7FEA6C5C02D152EAE3
:100D3000033C02D14FF0000070474FF001007047B4
:100D40000348044B834202D0034B03B1184770475A
:100D5000C4060020C4060020000000000548064B21
:100D60001B1AD90F01EBA301491002D0034B03B1A9
:100D700018477047C4060020C40600200000000089
:100D800010B5064C237843B9FFF7DAFF044B13B1D3
:100D90000448AFF300800123237010BDC406002077
:100DA0000000000024A3000808B5054B1BB105494D
:100DB0000548AFF30080BDE80840FFF7CFBF00BF94
:100DC00000000000C806002024A3000800B585B07C
:100DD00000230193029303931048114A0260836039
:100DE000037303754FF42022C26143600123036142
:100DF00000F058FE60B90123019302930623039388
:100E000001A9064800F0A6FC28B905B05DF804FB6E
:100E100000F070F9EFE700F06DF9F6E754070020F5
:100E20000024014000B585B0002301930293039391
:100E30001148124A02608360037303754FF4602205
:100E4000C26143600123036100F02CFE68B90223F4
:100E50000193012302930323039301A9064800F0A1
:100E600079FC28B905B05DF804FB00F043F9EEE722
:100E700000F040F9F6E700BF2407002000280140F9
:100E800010B588B000230493059306930793036875
:100E90002D4A934204D02D4A934238D008B010BD59
:100EA00004462B4B9A6942F400729A619A6902F4E3
:100EB00000720092009A9A6942F004029A619B695A
:100EC00003F004030193019B02230493032305937E
:100ED00004A9204801F08AF81F48204B0360002332
:100EE000436083608022C2604FF4807202614FF4DD
:100EF0008062426120228261C36100F065FF18B9FF
:100F0000154B23625C62C9E700F0F4F8F8E7104B78
:100F10009A6942F480629A619A6902F4806202924C
:100F2000029A9A6942F004029A619B6903F00403F1
:100F30000393039B0C2304930323059304A90548FF
:100F400001F054F8AAE700BF002401400028014046
:100F50000010024000080140E006002008000240A6
:100F600000B583B00A4B5A6942F001025A615B69CD
:100F700003F001030193019B002211460B2000F0B6
:100F8000DBFE0B2000F0E8FE03B05DF804FB00BFC1
:100F9000001002402DE9F04188B00024049405942B
:100FA00006940794284B9A6942F020029A619A6944
:100FB00002F020020192019A9A6942F004029A61B9
:100FC0009A6902F004020292029A9A6942F00802B7
:100FD0009A619B6903F008030393039BDFF86C801D
:100FE00022464FF48071404601F00EF9184D22461A
:100FF0002021284601F008F901224FF4807128468B
:1010000001F002F940F6064304930594069404A9FE
:10101000284600F0EBFF4FF48073049301270597F7
:1010200006940226079604A9404600F0DFFF4FF41D
:101030009073049305970694079604A9284600F038
:10104000D5FF08B0BDE8F081001002400008014063
:10105000000C014008B50B480B4B03600B4B436081
:1010600000238360C3604FF4804202614361836167
:10107000C361036201F072FA00B908BD00F03AF8EA
:10108000FBE700BF8407002000540040A086010059
:1010900010B586B00023029303930493059302686E
:1010A000114B9A4201D006B010BD104CA36943F019
:1010B0000803A361A36903F008030093009BC02306
:1010C0000293122303930323059302A9084800F017
:1010D0008DFFE36943F40013E361E36903F4001354
:1010E0000193019BDFE700BF005400400010024065
:1010F000000C014072B6FEE708B5294A136823F0D8
:10110000070343F002031360254B1B6803F007033A
:10111000022BF9D1234A136843F480331360214B27
:101120001B6813F4003FFAD01E4A536823F47C1363
:1011300043F4E8135360136843F080731360194B52
:101140001B6813F0007FFAD0164B5A6822F0F002A9
:101150005A605A6822F4E06242F480625A605A6827
:1011600022F460525A605A6822F0030242F00202EE
:101170005A600C4B5B6803F00C03082BF9D10A484A
:1011800002F09CF90F2000F049FA38B9054A53687B
:1011900023F4404343F40043536008BDFFF7AAFF24
:1011A000002002400010024000A24A0410B5ADF534
:1011B000805D00F059FAFFF79FFFFFF7EBFEFFF7A6
:1011C000CFFE00F0AFF9FFF701FEFFF743FFFFF797
:1011D00029FE00F02FF90C21294801F00FFF294CBE
:1011E000204600F0E3FC284800F0E0FC274B1A689A
:1011F000136843F00203136001222549204600F0E2
:101200008DFB02F019FC4FF480520021684603F078
:1012100069F802F04BFE02F00FFC02F013FD40F6FD
:10122000B83000F045FA02F06BFC02F09DFC40F68D
:10123000B83000F03DFA02F0D9FC40F6B83000F0CA
:1012400037FA002002F06AF902F093FD02F07CFD0B
:1012500040F6B83000F02CFA002002F05FF902F0FE
:10126000A3FD40F6B83000F023FA002002F056F952
:1012700002F0BEFD40F6B83000F01AFACBE700BF2E
:10128000E80F00205407002024070020E00600207B
:10129000E00F002010B5013801280AD814464FF09D
:1012A000FF3392B20748006802F039F840B920468F
:1012B00010BD03F0BBF8092303604FF0FF30F7E7E0
:1012C0000520F5E7D807002008B548B94FF0FF33EF
:1012D00001220848006802F088F840B9012008BDE2
:1012E00003F0A4F8092303604FF0FF30F7E705206F
:1012F000F5E700BFD807002082B00E4B9A6942F094
:1013000001029A619A6902F001020092009ADA6978
:1013100042F08052DA61DB6903F080530193019B54
:10132000054A536823F0E06343F00073536002B052
:10133000704700BF0010024000000140FEE7FEE7DA
:10134000FEE7FEE7FEE770477047704708B500F01C
:101350009DF908BD08B50D4B1B681B6813F0020F03
:101360000FD00B4B02225A600A4B1B88B3F5806FDB
:1013700007D2591C074A1180074A1188074A22F8E8
:101380001310024800F090FD08BD00BFE0060020E9
:1013900000000240DC070020E00F0020E0070020F2
:1013A00008B5024801F0ABFB08BD00BFE80F002004
:1013B0000120704708B503F039F8162303604FF099
:1013C000FF3008BD08B54FF0FF31FFF7F3FFFEE730
:1013D0004FF0FF3070474FF400534B6000207047D0
:1013E000012070470020704710B503460C4A0D4994
:1013F0000D48006840B10C4800680344521A9342FB
:1014000006D8094A136010BD0748084C0460F2E78B
:1014100003F00CF80C2303604FF0FF30F3E700BF3C
:101420000050002000040000E40F00209817002066
:101430007047000000B58FB000230A930B930C9304
:101440000D930893099301930293039304930593D7
:10145000069307932148224A026047224260836034
:101460006322C26003618023836101F039FC28BBE1
:101470004FF480530A930AA9184801F031FD00BBCC
:10148000164801F059FCF8B970230893802309939A
:1014900008A9124801F020FEC8B960230193312346
:1014A000029302230393002305930C2201A90B4806
:1014B00001F09CFC70B90FB05DF804FBFFF71AFE59
:1014C000D6E7FFF717FEDBE7FFF714FEDCE7FFF7D1
:1014D00011FEE2E7FFF70EFEEDE700BFE80F002088
:1014E0000008004002680E4B9A4200D0704700B5D9
:1014F00083B003F50233DA6942F00402DA61DB6992
:1015000003F004030193019B002211461E2000F00A
:1015100013FC1E2000F020FC03B05DF804FB00BFAC
:101520000008004008B50A480A4B03604FF4E13355
:10153000436000238360C36003610C2242618361C6
:10154000C36101F0BCFE00B908BDFFF7D3FDFBE7A6
:10155000301000200038014010B586B000230293FF
:101560000393049305930268174B9A4201D006B087
:1015700010BD03F558439A6942F480429A619A6912
:1015800002F480420092009A9A6942F004029A6141
:101590009B6903F004030193019B4FF400730293D2
:1015A0000223039303230593084C02A9204600F06D
:1015B0001DFD4FF48063029300230393049302A95B
:1015C000204600F013FDD2E700380140000801403A
:1015D000FFF72EFF0B480C490C4A002302E0D458B9
:1015E000C4500433C4188C42F9D3094A094C00236F
:1015F00001E013600432A242FBD302F01DFFFFF7AB
:10160000D5FD704700000020C4060020F0E7000868
:10161000C406002098170020FEE7000010B504461D
:101620000E4B1A784FF47A73B3FBF2F30C4A10683E
:10163000B0FBF3F000F09EFB68B90F2C01D901203C
:101640000AE0002221464FF0FF3000F075FB054B09
:101650001C60002000E0012010BD00BF040000203D
:10166000000000200800002008B5074A136843F076
:1016700010031360032000F04DFB0F20FFF7CEFF97
:10168000FFF73AFE002008BD00200240034A11681F
:10169000034B1B780B441360704700BF7810002089
:1016A00004000020014B1868704700BF781000202C
:1016B00038B50446FFF7F6FF0546B4F1FF3F02D008
:1016C000044B1B781C44FFF7EDFF401BA042FAD3EC
:1016D00038BD00BF04000020704708B5436A9A6A0D
:1016E00012F0500F1ED19A6A42F400729A621A6880
:1016F000926802F46022B2F5602F03D01846FFF71B
:10170000EBFF08BD1A7B002AF8D19A6A22F4807296
:101710009A629A6A12F4805FF0D19A6A42F00102EA
:101720009A62EBE71B6A1B6B9847EAE7704708B5BC
:10173000406AFFF7FBFF08BD704708B5406A836A3F
:1017400043F040038362C36A43F00403C362FFF7BC
:10175000F3FF08BD30B482B00022019290F824203B
:10176000012A00F08F800346012280F824204A6875
:10177000062A2DD80468606B02EB8202053A4FF00E
:101780001F0C0CFA02FC20EA0C000D6805FA02F2AC
:10179000024362630A68092A38D91C68E06802EBD0
:1017A00042021E3A4FF0070C0CFA02FC20EA0C0031
:1017B0008D6805FA02F20243E2600A68103A012AD3
:1017C00034D90020002283F8242002B030BC7047B6
:1017D0000C2A0DD80568286B02EB8202233A1F24DD
:1017E000944020EA04000C68944020432863D1E729
:1017F0000568E86A02EB8202413A1F24944020EA1D
:1018000004000C6894402043E862C3E71C68206928
:1018100002EB42024FF0070C0CFA02FC20EA0C002B
:101820008D6805FA02F202432261C6E71A6816487B
:10183000824205D09A6A42F020029A620120C1E7F2
:10184000906810F4000F1BD1906840F40000906085
:101850000A68102A01D00020B4E70C4A12680C492B
:10186000A1FB0212920C02EB82025200019202E0F2
:10187000019A013A0192019A002AF9D10020A1E7C8
:1018800000209FE70220A0E7002401400000002084
:1018900083DE1B4330B583B00023019303689A684D
:1018A00012F0010F33D104469A6842F001029A60A7
:1018B000184B1B68184AA2FB03239B0C019302E000
:1018C000019B013B0193019B002BF9D1FFF7EAFE3D
:1018D000054623689B6813F0010F16D1FFF7E2FE5F
:1018E000431B022BF5D923689B6813F0010FF0D13D
:1018F000A36A43F01003A362E36A43F00103E362C7
:10190000002384F82430012002E0002000E00020C1
:1019100003B030BD0000002083DE1B43F8B5044651
:101920000D46164601684448814259D0434B9942BE
:1019300056D094F82430012B7CD0012384F8243035
:101940002046FFF7A7FF074600286ED1A16A21F4C1
:10195000706121F0010141F48071A1622268374B6E
:101960009A4244D0A36A23F48013A362536813F409
:10197000806F05D0A36A23F4405343F48053A362DD
:10198000A36A13F4805F48D0E36A23F00603E3629E
:10199000002384F82430236A294A9A62236A294A58
:1019A000DA62236A284A1A6323686FF002021A6017
:1019B0002268936843F480739360216833462A4613
:1019C0004C31206A00F034FA23689A6802F46022ED
:1019D000B2F5602F24D09A6842F480129A6027E012
:1019E000154B5B6813F4702FA3D0012720E0A3F5FB
:1019F00080635B6813F4702FB4D0A36A43F4801340
:101A0000A3620D4B5B6813F4806FB9D0A36A23F413
:101A1000405343F48053A362B2E70023E362B7E785
:101A20009A6842F4A0029A6002E0002384F824300D
:101A30003846F8BD0227FBE700240140002801409A
:101A4000DB1600082F1700083B17000838B503689D
:101A50009A6812F0010F01D1002038BD04469A683F
:101A600022F001029A60FFF71DFE054623689B687D
:101A700013F0010F13D0FFF715FE431B022BF5D90E
:101A800023689B6813F0010FF0D0A36A43F01003A2
:101A9000A362E36A43F00103E3620120DDE7002073
:101AA000DBE7000000287BD070B50446836A002B7A
:101AB0004DD02046FFF7CAFFA36A13F0100369D187
:101AC000002867D1A26A22F4885222F0020242F072
:101AD0000202A2626268E1690A43217B42EA410292
:101AE000A568B5F5807F02D0012D36D01D46267D34
:101AF000012E35D02668716821F46941294371604F
:101B00002568AE68274931401143A960A168B1F545
:101B1000807F01D0012902D12369013B1B05256883
:101B2000E96A21F470010B43EB62236899681E4B4C
:101B30000B409A4225D0A36A23F0120343F010030E
:101B4000A362E36A43F00103E362012027E0C3627A
:101B500080F82430FFF794F9ABE74FF48075C6E7BF
:101B600031B9A169013945EA413141F40065C1E764
:101B7000A16A41F02001A162E16A41F00101E16244
:101B8000B8E70023E362A36A23F0030343F00103F1
:101B9000A36204E0A36A43F01003A362012070BDB6
:101BA00001207047FDF7E1FFFE0E1FFF70B582B008
:101BB0000023019390F82430012B72D004460123B6
:101BC00080F82430FFF742FF2046FFF763FE05460A
:101BD00028B1002384F82430284602B070BDA36ADF
:101BE00023F4885323F0020343F00203A3622E4B35
:101BF0001E68022000F068FEB6FBF0F67600019643
:101C000002E0019B013B0193019B002BF9D122686B
:101C1000936843F008039360FFF744FD064623688A
:101C20009A6812F0080F14D0FFF73CFD801B0A28B9
:101C3000F5D923689B6813F0080FF0D0A36A23F04E
:101C4000120343F01003A362002384F8243001251B
:101C5000C2E79A6842F004029A60FFF723FD064645
:101C600023689B6813F0040F14D0FFF71BFD801B43
:101C70000A28F5D923689B6813F0040FF0D0A36AF3
:101C800023F0120343F01003A362002384F82430EE
:101C90000125A1E7A36A23F0030343F00103A36234
:101CA00097E7022598E700BF00000020002808DB26
:101CB0000901C9B200F1604000F5614080F80013ED
:101CC000704700F00F000901C9B2014B1954704769
:101CD00014ED00E000B500F00700C0F1070CBCF106
:101CE000040F28BF4FF0040C031D062B0FD9C31E91
:101CF0004FF0FF3E0EFA0CF021EA000199400EFA77
:101D000003FE22EA0E0241EA02005DF804FB002312
:101D1000EEE70000074AD36823F4E0631B041B0CC2
:101D2000000200F4E060034343F0BF6343F4003378
:101D3000D360704700ED00E010B50446054BD8684D
:101D4000C0F30220FFF7C6FF01462046FFF7AEFFB3
:101D500010BD00BF00ED00E0002807DB00F01F020F
:101D6000400901239340024A42F82030704700BFE7
:101D700000E100E00138B0F1807F0BD24FF0E023AA
:101D80005861054AF02182F823100020986107224B
:101D90001A6170470120704700ED00E030B4012463
:101DA000056CAC40C56B6C60046863604368102BC5
:101DB00005D0036899600368DA6030BC7047036837
:101DC0009A600368D960F8E750B310B4024601681E
:101DD000144B0B441448A0FB03031B099B00136422
:101DE000124BD363022382F8213008686FF30D1081
:101DF000536894682343D468234314692343546984
:101E0000234394692343D469234303430B60002095
:101E10009063012382F8213082F8200010BC7047C3
:101E200001207047F8FFFDBFCDCCCCCC00000240B4
:101E300038B5044690F82000012832D0012084F8FB
:101E4000200094F82100C0B2012804D0002384F8B7
:101E50002030022038BD022084F821000020A06339
:101E60002568286820F0010028602046FFF796FFCB
:101E7000E36A5BB12268136843F00E0313602268C3
:101E8000136843F0010313600020E3E7226813683E
:101E900023F0040313602268136843F00A031360FD
:101EA000EDE70220D6E7000038B5C36B1A68046876
:101EB0002568016C04238B40134235D015F0040FC4
:101EC00032D0236813F0200F03D1236823F00403DA
:101ED00023600368434A934214D01432934218D0CB
:101EE0001432934217D01432934217D014329342D3
:101EF00017D01432934202D04FF0806203E04FF4C7
:101F0000800200E00422384B5A60C36A03B198474C
:101F100038BD4022F7E74FF48062F4E74FF4804287
:101F2000F1E74FF48022EEE702238B4013423CD0CE
:101F300015F0020F39D0236813F0200F06D1236863
:101F400023F00A032360012380F821300368254A27
:101F5000934214D0143293421CD0143293421BD0BB
:101F6000143293421BD0143293421BD0143293424A
:101F700002D04FF0007203E04FF4001200E00222A2
:101F8000194B5A60002380F82030836A002BBFD0A1
:101F90009847BDE72022F3E74FF40072F0E74FF4D3
:101FA0000052EDE74FF40032EAE708238B4013427A
:101FB000AED015F0080FABD0236823F00E032360DA
:101FC000026CC16B012303FA02F24A60836380F85A
:101FD0002130002380F82030036B002B98D09847E5
:101FE00096E700BF080002400000024070B582B0D2
:101FF0000024A446A1E07E4DAB4214D00CD8A5F538
:102000008015AB420FD005F57025AB420BD0A5F57E
:102010008015AB4210D106E0764DAB4203D005F5FA
:102020008035AB4208D18B68002B50D0012B49D0B2
:102030004261082400E0CC68BEF1FF0F49D8064693
:102040004FEA8C0233680F25954023EA050304FA12
:1020500002F2134333604B6813F0805F6BD0664B22
:102060009A6942F001029A619B6903F001030193AE
:10207000019B4FEA9C02951C604B53F825600CF0C5
:102080000305AD000F23AB4026EA03065C4B9842E4
:1020900026D003F58063984200F08C8003F58063BE
:1020A000984200F0898003F58063984216D004239B
:1020B00017E0CC680434BFE7CC680834BCE7CC68D0
:1020C0000C34B9E702610824B6E70024B4E704241D
:1020D000B2E7061DACF108029200B3E7032300E06B
:1020E0000023AB4033430232444D45F822304B6865
:1020F00013F4801F62D0434A936843EA0E0393604F
:102100004B6813F4001F5FD03E4AD36843EA0E03C6
:10211000D3604B6813F4003F5CD03A4A536843EAFB
:102120000E0353604B6813F4803F59D0354A13684F
:1021300043EA0E0313600CF1010C0B6833FA0CF246
:1021400054D0012202FA0CF203EA020E32EA03032F
:10215000F1D14B68122B3FF64EAF122B3FF66CAF0E
:1021600001A555F823F000BF2720000837200008FC
:10217000B9200008CB2000083920000839200008C9
:1021800039200008392000083920000839200008CB
:1021900039200008392000083920000839200008BB
:1021A000392000083920000839200008B320000831
:1021B000BF200008012394E7022392E7114A9368A5
:1021C00023EA0E0393609BE70E4AD36823EA0E03CB
:1021D000D3609EE70B4A536823EA0E035360A1E7DE
:1021E000084A136823EA0E031360A4E702B070BD27
:1021F00000002210000031100010024000000140D9
:1022000000080140000401400AB10161704709045F
:102210000161704703685A6912F4806F01D1002090
:1022200070476FF480625A6100230363202280F8B4
:102230003D2080F83E30026C42F00402026480F8D7
:102240003C30012070472DE9F04106460C46174608
:1022500098463BE0FFF726FA069BC01A404502D895
:10226000B8F1000F32D1012D18D033689B6924EAF0
:1022700003039BB2B3FA83F35B099F4226D1002389
:102280003363202286F83D2086F83E30326C42F0DF
:102290002002326486F83C30012027E033685B6915
:1022A00024EA03039BB2B3FA83F35B09E5E73368DF
:1022B0005B6924EA030C1FFA8CFCBCFA8CFC4FEA25
:1022C0005C1C674511D1B8F1FF3FC3D1C4F307458A
:1022D000012DECD033689B6924EA030C1FFA8CFCB7
:1022E000BCFA8CFC4FEA5C1CEBE70020BDE8F081F7
:1022F0002DE9F84305460E469046994653E01A6884
:1023000042F400721A602B686FF480625A610023F5
:102310002B63202285F83D2085F83E302A6C42F060
:1023200004022A6485F83C3001204AE0FFF7BAF93C
:10233000A0EB0900404502D8B8F1000F33D1012FBE
:1023400017D02B689B6926EA03039BB2003B18BF9A
:10235000012343B300232B63202285F83D2085F819
:102360003E302A6C42F020022A6485F83C3001207D
:1023700027E02B685B6926EA03039BB2003B18BF8A
:102380000123E6E72B689C6926EA0404A4B2003C1A
:1023900018BF0124A4B12B685A6912F4806FAED122
:1023A000B8F1FF3FC2D1C6F30747012FEAD12B682E
:1023B0005C6926EA0404A4B2003C18BF0124E9E7E2
:1023C0000020BDE8F88370B504460D461646236824
:1023D0005B6913F0800F21D12046FFF71BFFF8B98E
:1023E000B5F1FF3FF3D0FFF75DF9801BA84201D89C
:1023F000002DECD123685B6913F0800FE7D1002337
:102400002363202284F83D2084F83E30226C42F081
:102410002002226484F83C30012000E0002070BDDE
:102420000120FCE72DE9F04385B004460D469146B6
:102430001F46DDF830800D9E0368196841F48071F5
:1024400019600096434600224FF00111FFF7FBFE92
:1024500060B9236805F0FE051D61334642462649F2
:102460002046FFF745FF68B1012008E023681B689C
:1024700013F4807F02D04FF400732364032005B06F
:10248000BDE8F0830023039323685A6903929B6994
:102490000393039B324641462046FFF794FF30B931
:1024A000012F0FD123685FFA89F61E61E7E7236CDD
:1024B000042B01D00120E2E72268136843F4007383
:1024C0001360F7E723684FEA19221A613246414642
:1024D0002046FFF778FF20B923685FFA89F61E616E
:1024E000CDE7236C042B01D00120C8E722681368D4
:1024F00043F400731360F7E70200010070B504466F
:102500000D46164623685B6913F0040F21D120465F
:10251000FFF780FEF8B9B5F1FF3FF3D0FFF7C2F83F
:10252000801BA84201D8002DECD123685B6913F011
:10253000040FE7D100232363202284F83D2084F890
:102540003E30226C42F02002226484F83C300120AC
:1025500000E0002070BD0120FCE70000002800F032
:10256000CC8070B5044690F83D30002B77D0242302
:1025700084F83D302268136823F001031360226859
:10258000136843F4004313602268136823F4004384
:10259000136000F079F962685A4B9A4264D85A4B3A
:1025A00098428CBF00230123002B40F0A88057499C
:1025B000A1FB00318B0C25686A6822F03F0242EAD9
:1025C00091426A6021680A6A22F03F0266684D4DB6
:1025D000AE424FD8013313430B622168CA6922F41B
:1025E0004F4222F0FF026568464B9D424CD8431E85
:1025F0006D00B3FBF5F3013340F6FC70034278D075
:10260000C3F30B031A43CA6121680B6823F0C003AC
:10261000E269206A024313430B6021688B6823F44C
:10262000034323F0FF032269E068024313438B60F6
:102630002168CB6823F0FF036269A069024313435A
:10264000CB602268136843F001031360002020640C
:10265000202384F83D30206384F83E0070BD80F86C
:102660003C30FEF715FD82E7294B98428CBF0023D2
:10267000012399E74FF4967505FB03F3254DA5FB60
:1026800003539B090133A6E7A668BEB9431E05EBB9
:10269000450CB3FBFCF30133C3F30B03B3FA83F331
:1026A0005B0943BBC6B9431E05EB4505B3FBF5F318
:1026B0000133C3F30B0343F40043A3E7431E05EBCD
:1026C000850C0CEB8C0CB3FBFCF30133C3F30B0355
:1026D000B3FA83F35B09E4E7431E05EB850505EBDD
:1026E0008505B3FBF5F30133C3F30B0343F4404318
:1026F00088E7042386E7012384E70120704701204F
:10270000ACE700BFA08601007F841E0083DE1B4370
:10271000FF083D00D34D62102DE9F04383B004461D
:102720000F46904699460C9EFEF7BCFF054694F86E
:102730003D00C0B2202803D0022003B0BDE8F083E2
:102740000095192301224B492046FFF77CFD002804
:1027500040F0898094F83C30012B00F08680012302
:1027600084F83C3023681A6812F0010F03D11A680C
:1027700042F001021A602268136823F400631360B8
:10278000212384F83D30402384F83E300023236425
:102790000A9B6362BDF82C306385638D2385364BBD
:1027A000E362019500964B46424639462046FFF7C4
:1027B00039FE00285BD1238D002B35D02A463146C7
:1027C0002046FFF700FE20BB626A236812781A6178
:1027D000626A531C6362218D013989B22185638D40
:1027E0009BB2013B9BB263852368586910F0040FCC
:1027F000E1D00029DFD052781A61636A0133636245
:10280000238D013B2385638D9BB2013B9BB2638586
:10281000D1E7236C042B01D001208EE722681368D6
:1028200043F400731360F7E72A4631462046FFF76A
:1028300065FE50B1236C042B01D001207DE7226896
:10284000136843F400731360F7E72268136843F4D6
:1028500000731360202384F83D30002384F83E3059
:1028600084F83C3069E7022067E7022065E7012031
:1028700063E700BF020010000000FFFF014B186873
:10288000704700BF0000002008B5FFF7F7FF044BBA
:102890005B68C3F30223034AD35CD84008BD00BF82
:1028A0000010024040A3000808B5FFF7E7FF044B03
:1028B0005B68C3F3C223034AD35CD84008BD00BFA2
:1028C0000010024040A3000808B502284ED010288E
:1028D00003D0012828D0002052E02B4B5A681868FA
:1028E00010F080704CD0C2F383432849C85C12F4C6
:1028F000803F15D0244B5B68C3F34043244AD25C2D
:10290000244BB3FBF2F303FB00F01F4B5B6813F4A3
:10291000800F35D14000204BA3FB003040082FE052
:102920001E4B03FB00F0F0E7174B1B6A40F202322C
:102930001A40B2F5817F24D003F44073B3F5007FD1
:1029400004D0B3F5407F09D0002019E00E4A526A46
:1029500012F0020FF5D049F6404011E00A4B18681A
:1029600010F400300CD04FF2244009E0FFF79CFF38
:10297000054B5B68C3F3813301335B00B0FBF3F0BD
:1029800008BD4FF40040FBE7001002404CA30008D4
:1029900048A3000800127A00ABAAAAAA00093D00C9
:1029A00030B4026A036A23F0010303624568836955
:1029B00023F073030C681C4322F002028B6813435C
:1029C0000B4A904206D0456084614A6842630362C4
:1029D00030BC704723F00803CA681A4322F004038E
:1029E00025F440754A692A438D691543EBE700BF1A
:1029F000002C014030B4036A026A22F48072026241
:102A00004468C26922F073020D68154323F4007311
:102A10008A6843EA02230D4A904206D04460C561A9
:102A20004A68C263036230BC704723F40063CA681B
:102A300043EA022323F4806324F440544A6944EABD
:102A400002148A6944EA0214E8E700BF002C01403E
:102A500030B4036A026A22F4805202624468C26996
:102A600022F4E6420D6842EA052223F400538D6801
:102A700043EA0533074DA84206D04460C2614A6864
:102A80000264036230BC704724F480444D6944EA18
:102A90008514F2E7002C014010B4036A046A24F0A4
:102AA00001040462846924F0F00C4CEA021223F061
:102AB0000A030B438261036210BC704710B4036ABF
:102AC000046A24F010040462846924F4704C4CEA13
:102AD000023223F0A00343EA01138261036210BCB7
:102AE0007047836823F070030B4343F00703836050
:102AF000704770477047704770477047704770B5B0
:102B000004460368DE681D6915F0020F10D016F048
:102B1000020F0DD06FF002021A61012303770368E0
:102B20009B6913F0030F5ED0FFF7E6FF00232377C6
:102B300015F0040F12D016F0040F0FD023686FF0B9
:102B400004021A610223237723689B6913F4407FF0
:102B50004FD02046FFF7D0FF0023237715F0080F52
:102B600012D016F0080F0FD023686FF008021A6118
:102B7000042323772368DB6913F0030F40D020463A
:102B8000FFF7BAFF0023237715F0100F12D016F0CD
:102B9000100F0FD023686FF010021A6108232377FB
:102BA0002368DB6913F4407F31D02046FFF7A4FF90
:102BB0000023237715F0010F02D016F0010F2DD15D
:102BC00015F0800F02D016F0800F2FD115F0400FB6
:102BD00002D016F0400F31D115F0200F02D016F0C0
:102BE000200F33D170BDFFF786FF2046FFF785FF2A
:102BF0009CE72046FFF77FFF2046FFF77EFFABE70D
:102C00002046FFF778FF2046FFF777FFBAE7204618
:102C1000FFF771FF2046FFF770FFC9E723686FF0E9
:102C200001021A612046FFF765FFC9E723686FF0CC
:102C300080021A61204600F086FAC7E723686FF029
:102C400040021A612046FFF759FFC5E723686FF07D
:102C500020021A61204600F075FAC3E703681F4A94
:102C600090420AD0B0F1804F07D0A2F59432904242
:102C700003D002F58062904203D123F070034A68CA
:102C80001343164A90420AD0B0F1804F07D0A2F504
:102C90009432904203D002F58062904203D123F433
:102CA0004073CA68134323F080034A6913430360E7
:102CB0008B68C3620B688362084B98420AD0012379
:102CC0004361036913F0010F03D0036923F001038B
:102CD000036170470B690363F1E700BF002C0140FB
:102CE00040B310B5044690F83D30F3B1022384F8A8
:102CF0003D30214651F8040BFFF7B0FF012384F863
:102D0000463084F83E3084F83F3084F8403084F810
:102D1000413084F8423084F8433084F8443084F8F9
:102D2000453084F83D30002010BD80F83C30FEF77F
:102D3000D9FBDBE70120704740B310B5044690F89B
:102D40003D30F3B1022384F83D30214651F8040BA5
:102D5000FFF784FF012384F8463084F83E3084F87E
:102D60003F3084F8403084F8413084F8423084F8B1
:102D7000433084F8443084F8453084F83D300020F6
:102D800010BD80F83C30FFF7B4FEDBE70120704750
:102D900030B4036A026A22F0100202624468826957
:102DA00022F4E6420D6842EA052223F020038D68F2
:102DB00043EA05130C4DA84206D0446082614A687C
:102DC0008263036230BC704723F08003CD6843EA1E
:102DD000051323F0400324F440644D6944EA85045C
:102DE0008D6944EA8504E8E7002C014038B590F885
:102DF0003C30012B66D004460D46012380F83C3060
:102E00000C2A5AD8DFE802F0075959591B59595969
:102E10003059595944000068FFF7C2FD2268936990
:102E200043F0080393612268936923F004039361DC
:102E30002268936929690B43936100203EE0006892
:102E4000FFF7A6FF2268936943F400639361226849
:102E5000936923F48063936122689369296943EA43
:102E600001239361002029E00068FFF7C3FD226879
:102E7000D36943F00803D3612268D36923F00403C4
:102E8000D3612268D36929690B43D361002015E01F
:102E90000068FFF7DDFD2268D36943F40063D36166
:102EA0002268D36923F48063D3612268D3692969D6
:102EB00043EA0123D361002000E00120002384F8CD
:102EC0003C3038BD0220FCE710B4846824F47F4C09
:102ED00042EA03220A4342EA0C02826010BC7047B5
:102EE00090F83C30012B78D010B50446012380F8CF
:102EF0003C30022380F83D300268936823F47F431E
:102F000023F0770393600B68602B4CD023D8402BC1
:102F100054D011D8202B03D00AD80BB1102B05D1D7
:102F200019462068FFF7DDFD002028E0012026E09B
:102F3000302BF5D0012022E0502B0AD1CA68496815
:102F40000068FFF7A9FD50212068FFF7CAFD0020A7
:102F500015E0012013E0B3F5805F3AD0B3F5005FD0
:102F600014D0702B37D1CB684A6889680068FFF7A6
:102F7000ABFF2268936843F077039360002001233E
:102F800084F83D30002384F83C3010BDCB684A689B
:102F900089680068FFF798FF2268936843F48043CC
:102FA00093600020EBE7CA6849680068FFF786FD78
:102FB00060212068FFF795FD0020E0E7CA684968B6
:102FC0000068FFF769FD40212068FFF78AFD0020B7
:102FD000D5E70020D3E70120D1E70220704701F0B8
:102FE0001F014FF0010C0CFA01FC036A23EA0C03E9
:102FF0000362036A8A4013430362704710B50446B4
:10300000084651BB94F83E30DBB2013B18BF0123A8
:10301000002B5BD1002839D1022384F83E300122F5
:1030200001462068FFF7DBFF23682A4A93423DD020
:103030002368284A93423ED0B3F1804F3BD0A2F59B
:103040009432934237D002F58062934233D01A68AB
:1030500042F001021A60002039E0042908D0082952
:103060000DD094F84130DBB2013B18BF0123CFE70C
:1030700094F83F30DBB2013B18BF0123C8E794F856
:103080004030DBB2013B18BF0123C1E7042805D063
:10309000082807D0022384F84130C0E7022384F8CF
:1030A0003F30BCE7022384F84030B8E75A6C42F462
:1030B00000425A64BCE79A6802F00702062A07D069
:1030C0001A6842F001021A60002000E0012010BDE1
:1030D0000020FCE7002C014090F83C20012A2CD075
:1030E00010B40346012280F83C20022280F83D20E3
:1030F00002685068946820F0700C086840EA0C0080
:1031000050601A680E4882420AD0B2F1804F07D050
:10311000A0F59430824203D000F58060824204D151
:1031200024F08004496821439160012283F83D2006
:10313000002083F83C0010BC70470220704700BF9D
:10314000002C014070477047026802F10C0353E8FD
:10315000003F23F490730C3242E800310029F3D190
:10316000026802F1140353E8003F23F00103143214
:1031700042E800310029F3D1036B012B05D0202355
:1031800080F84230002303637047026802F10C03A9
:1031900053E8003F23F010030C3242E800310029CD
:1031A000F3D1ECE710B504460268136923F44053E9
:1031B000C1680B43136183680269134342691A4370
:1031C0000168CB6823F4B05323F00C031343CB60A6
:1031D0000268536923F4407381690B4353610268A9
:1031E000134B9A4220D0FFF74FFB024602EB8202BC
:1031F00002EB820263689B00B2FBF3F20D48A0FB76
:1032000002314909642303FB11231B013233A0FB64
:1032100003035B0903F0F00202EB011203F00F035A
:10322000216813448B6010BDFFF73EFB0246DDE7CB
:10323000003801401F85EB512DE9F04383B005466E
:103240000E4617469946DDF828802B681C6836EA3A
:1032500004040CBF01240024BC4228D1B8F1FF3F74
:10326000F3D0FEF71FFAA0EB0900404523D8B8F1D0
:10327000000F22D02B68DA6812F0040FE5D0802E00
:10328000E3D0402EE1D01A6812F0080FDDD0002400
:1032900001941A6801925B680193019B2846FFF72D
:1032A00053FF08236B6485F84040012000E00020B4
:1032B00003B0BDE8F0830320FAE70320F8E760B32A
:1032C00010B5044690F8413013B3242384F84130FC
:1032D0002268D36823F40053D3602046FFF762FFCF
:1032E0002268136923F4904313612268536923F021
:1032F0002A0353612268D36843F40053D36000204B
:103300006064202384F8413084F84230606310BD4B
:1033100080F84030FEF720F9D7E7012070472DE90B
:10332000F04182B01E4690F84130DBB2202B56D1DE
:1033300004460D469046002955D00AB901204FE0B9
:1033400000234364212380F84130FEF7ABF90746A0
:10335000A4F82480A4F82680A368B3F5805F02D087
:103360004FF0000814E023692BB34FF000080FE082
:10337000202384F84130032032E038F8023B2268F1
:10338000C3F308035360E28C92B2013A92B2E28432
:10339000E38C9BB293B100963B46002280212046ED
:1033A000FFF74AFF0028E3D1002DE6D015F8012BE6
:1033B00023685A60E7E7A8460025E9E700963B4600
:1033C000002240212046FFF737FF18B9202384F858
:1033D000413005E0202384F84130032000E0022042
:1033E00002B0BDE8F0810120FAE72DE9F04182B09A
:1033F0001E4690F84230DBB2202B59D104460D46D0
:103400009046002958D00AB9012052E000234364B5
:10341000222280F842200363FEF744F90746A4F80D
:103420002C80A4F82E80A368B3F5805F02D04FF003
:1034300000081CE0236913B14FF0000817E0A8460C
:10344000002514E0202384F84230032031E0236873
:103450005B68C3F3080328F8023B03E023685B685A
:103460002B700135E28D92B2013A92B2E285E38D82
:103470009BB2C3B100963B46002220212046FFF7B5
:10348000DBFE0028DED1002DE1D0A368B3F5805F1C
:10349000E4D013B92369002BE0D023685B6803F004
:1034A0007F032B70DDE7202384F84230002000E00A
:1034B000022002B0BDE8F0810120FAE7014B18605C
:1034C000704700BF0000002000B587B08DF81700DE
:1034D0004FF0FF330293012301930DF11702009285
:1034E000002278210248FFF717F907B05DF804FBC6
:1034F0008407002000B585B04FF0FF33029389B2F6
:10350000019100900123402278210348FFF704F93C
:1035100005B05DF804FB00BF8407002008B530B992
:1035200000214FF48062034800F0DCFE08BDFF215B
:10353000F7E700BF8410002010B5002412E0A4F1CA
:103540005000C0B2FFF7C0FF0020FFF7BDFF102002
:10355000FFF7BAFF8021054800EBC410FFF7CAFF50
:103560000134E4B2072CEAD910BD00BF841000205A
:1035700010F0800F1ED13F291CD810B4012A0ED0A4
:10358000CB0800EBC3100C4C225C01F007010123B7
:103590008B40DB435BB21340235410BC7047CB0815
:1035A00000EBC310044C235C01F007018A40134375
:1035B0002354F2E7704700BF841000202DE9F04744
:1035C00084B0814604A800E90E009DF83080A9F17E
:1035D0002003DBB25E2B46D8274B1B889DF8046086
:1035E0003344802B43DC244B5B889DF805A0534477
:1035F000402B3EDC00251FE01F4B188859882944CA
:103600002044B8FA88F25209C9B2C0B2FFF7B0FF3D
:103610000134A6420FD907FA04F313F4004FEBD09C
:10362000154B18885988294420444246C9B2C0B273
:10363000FFF79EFFECE70135AA4508D9A9F1200361
:1036400003FB0A53029A32F813700024E1E70A4B95
:103650001A88039B13B14B4413F8206C9319064A44
:103660001380484600E0002004B0BDE8F087002049
:10367000FAE70020F8E700BF7C10002030B587B0E3
:10368000044606A800E90E009DF8285000E0013429
:10369000207848B1009506AB13E90E00FFF78EFFC6
:1036A000034620788342F2D007B030BD014B18802A
:1036B000598070477C1000202DE9F04F83B00446FC
:1036C0000E4691469B469DF830A0A2EB0008B8F14B
:1036D000000FB8BFC8F100085F1A002FB8BF7F42C3
:1036E00082420DD901230093B3450DD901230193E3
:1036F000A8EB0705524659464846FFF739FF1BE03D
:103700004FF0FF330093EFE74FF0FF330193EFE704
:10371000524631462046FFF72BFF6B007A42B2EB50
:10372000450F03DAED1B009A1444E4B2984503DD1B
:103730004544019B1E44F6B24C45E9D15E45E7D1B4
:1037400003B0BDE8F08F10F0800F52D12DE9F04F9B
:1037500083B099465742C2F1010254003F2945D82F
:103760004FF0000A0090019108E02346A7423BDA9F
:1037700001377C0001341C44002F37DCFEB2009B73
:10378000A3EB06085FFA88F85FFA8AF5019905EB62
:10379000010B5FFA8BFB4A4659464046FFF7E8FEAD
:1037A000009A1644F6B24A4659463046FFF7E0FE04
:1037B000019B5D1BEDB24A4629463046FFF7D8FE15
:1037C0004A4629464046FFF7D3FEA245CDDB0AF123
:1037D000010A4FEA4A03013323441AEB070FC5D10C
:1037E000A742C3DB0024C1E71C46C5E703B0BDE820
:1037F000F08F704710F0800F46D12DE9F84F074643
:103800008A4698465642C2F101024FEA420B3F29CE
:1038100038D84FF0000930E0424629462046FFF7ED
:10382000A7FE013CE4B2BB199C42F5DA013DEDB2C2
:10383000AAEB09039D4203DBF4B23C1BE4B2F2E7BE
:10384000D9450DDB09F101094FEA490301335B4416
:1038500019EB060F05D15E4503DB4FF0000B00E0CE
:103860005B465E4506DA01364FEA460B0BF1010B6B
:103870009B4400E09B46002E04DC5FFA89F555442A
:10388000EDB2D5E7BDE8F88F70472DE9F04182B081
:1038900005460E4617461C469DF82080CDF8008050
:1038A0000B46FFF709FFCDF8008023463A46314624
:1038B0003846FFF701FFCDF8008023462A4621460F
:1038C0003846FFF7F9FECDF8008033462A462146F8
:1038D0002846FFF7F1FE02B0BDE8F0812DE9F8437C
:1038E000064688469DF820708146904228BF914642
:1038F000904238BF16460D46994228BF1D46994250
:1039000038BF98460DE03A4629462046FFF730FE7C
:103910000134E4B2B44202D814F0800FF3D0013580
:10392000EDB2454503D83F2D01D84C46F2E7BDE83E
:10393000F883000012F0800F5AD13F2B5AD88242F0
:103940005AD38B425AD32DE9F041CE08DD08B5EBAE
:10395000D10F34D004461CE0294810F80CE06FEA7F
:103960000E0E00F80CE00CF1800C04EBC51EE645D1
:10397000F2D8DFF88C8018F80C00DF4307F0070757
:103980004FF0FF0E4EFA07FE80EA0E0008F80C001A
:103990000134A24210D304EBC61CDFF864E01EF829
:1039A0000C0001F00708FF2707FA08F778400EF827
:1039B0000C000CF1800CD8E70020BDE8F08101F08C
:1039C0000701FF2404FA01F1DB4303F007031C4164
:1039D0002140C9B200EBC61304E0094CE05C48404A
:1039E000E054013302EBC5109842F6D20020E4E720
:1039F0000120704701207047012070470120704767
:103A00008410002010B504468120FFF75DFD20469C
:103A1000FFF75AFD10BD000008B530B1054B01227B
:103A20005A71AF20FFF750FD08BD024B00225A71BA
:103A3000AE20F7E77C10002008B56420FDF738FEC3
:103A40000020FFF7E9FF2020FFF73EFD0020FFF7F1
:103A50003BFDB020FFF738FDC820FFF735FD002003
:103A6000FFF732FD1020FFF72FFD4020FFF72CFD60
:103A7000FF20FFF7C7FFA120FFF726FDA620FFF7D5
:103A800023FDA820FFF720FD3F20FFF71DFDA42008
:103A9000FFF71AFDD320FFF717FD0020FFF714FDF5
:103AA000D520FFF711FDF020FFF70EFDD920FFF71D
:103AB0000BFD2220FFF708FDDA20FFF705FD12209D
:103AC000FFF702FDDB20FFF7FFFC2020FFF7FCFCE7
:103AD0008D20FFF7F9FC1420FFF7F6FC0120FFF71B
:103AE0009BFF0020FFF71AFDFFF726FD034B002286
:103AF0001A805A8001221A7108BD00BF7C10002074
:103B000038B50020FFF70AFD0024254611E07F2D7F
:103B10001BD03F2C1ED0013CE4B201222146284696
:103B2000FFF726FDFFF708FD0520FDF7C1FD05B9EC
:103B3000ACB1002221462846FFF71AFD002CE6D141
:103B40007E2DE4D80135EDB2E7E73E2CE1D8013413
:103B5000E4B2E2E7002DDED0013DEDB2DDE74FF447
:103B60007A70FDF7A5FD38BD10B582B00020FFF7D3
:103B7000D5FC00210220FFF799FD144B012400948D
:103B80000ECB1348FFF77AFD1A210220FFF78EFDB6
:103B9000104B00940ECB1048FFF770FD2C21022033
:103BA000FFF784FD0D4B00940ECB0D48FFF766FD2B
:103BB00036210220FFF77AFD0A4B00940ECB0A480B
:103BC000FFF75CFDFFF7B8FC02B010BD68A300086A
:103BD0006CE3000874A3000878E3000880A30008E1
:103BE00084E300088CA3000890E3000830B583B09C
:103BF0000020FFF793FC04210020FFF757FD0E4C37
:103C00000125009594E80E000C48FFF737FD2421AC
:103C10000020FFF74BFD009594E80E000848FFF7E1
:103C20002DFD00953E2370223C216020FFF756FEBB
:103C3000FFF782FC03B030BD5CA300089CE30008E2
:103C4000A8E30008F0B597B00120FFF767FCFDF787
:103C500029FD0646364B93E8070016AB03E907003B
:103C600000210220FFF722FD324C0025009594E848
:103C70000E003148FFF702FD24210220FFF716FD58
:103C8000009594E80E002D48FFF7F8FC1221022061
:103C9000FFF70CFD274B002200920ECB13A8FFF775
:103CA000EDFCFFF749FC9DF84C400A220DF14D0157
:103CB00013A800F099FA8DF856400135FDF7F2FC93
:103CC000841B41F287339C42E0D941F28830FDF7F2
:103CD000EFFC2846FCF7CCFEFCF77EFB06460F46C1
:103CE0002046FCF757FB0022154BFCF7F7FC024679
:103CF0000B4630463946FCF7F1FCFCF7D7FD03468E
:103D0000104A402103A800F0E5F90120FFF706FC66
:103D100002210846FFF7CAFC064B002200920ECB98
:103D200003A8FFF7ABFCFFF707FC17B0F0BD00BF1F
:103D3000D4E3000874A30008B4E30008C0E300085B
:103D400000408F40CCE3000810B582B001240094FD
:103D50003F237F2221462046FFF7AEFC00943F23FD
:103D6000224621467F20FFF7A7FCFFF7E5FB02B0C4
:103D700010BD10B582B0002410E004EB8402D2B272
:103D8000501CC0B2C2F13F03C2F17F020121009179
:103D9000DBB2D2B20146FFF778FD0134042CECD936
:103DA000FFF7CAFB02B010BD10B582B00124009429
:103DB0002323412221461F20FFF790FD00943C233E
:103DC00046222D210A20FFF789FD00942D2364222D
:103DD0000A214B20FFF782FD002300933723502256
:103DE0001E211846FFF77AFDFFF7A6FB02B010BDB3
:103DF0002DE9F04182B000210220FFF757FC274C4B
:103E0000274E0125009594E80E003046FFF736FC5A
:103E100014210220FFF74AFC224F009594E80E007F
:103E20003846FFF72BFC28210220FFF73FFCDFF884
:103E30007880009594E80E004046FFF71FFC0021B3
:103E40004220FFF733FC009594E80E004046FFF750
:103E500015FC14214220FFF729FC009594E80E0080
:103E60003846FFF70BFC28214220FFF71FFC009586
:103E700094E80E003046FFF701FC3F231A4600216C
:103E80000846FFF757FD3C237D223A210220FFF729
:103E900051FDFFF751FB02B0BDE8F08174A30008AB
:103EA000E0E30008E8E30008ECE3000810B50024B4
:103EB0000BE004EB840398001E3001230A220F213B
:103EC00000F0FE00FFF73FFC0134042CF1D9002480
:103ED0000BE004EB4400C4EBC0000F3001230A22C6
:103EE0002821C0B2FFF786FC0134042CF1D9FFF77A
:103EF00023FB10BD024A0349034800F0C9B800BFC4
:103F00000C00002015680008200000200C4B4168C0
:103F100010B59942044601D002F07CFCA168094B1F
:103F2000994202D0204602F075FCE168064B9942A6
:103F300004D02046BDE8104002F06CBC10BD00BFAC
:103F400084140020EC140020541500202DE9F843BF
:103F500000250423304C314A3149DFF8C890DFF89E
:103F6000C880324F324E116004F15C0029460822AD
:103F7000C4E90335C4E90055C4E90555A560656683
:103F800000F0B0F904F15800C4E90749C4E9098711
:103F9000E66200F079FA274B2946082204F1C400B2
:103FA0006367C4E91A55C4E91E552567C4F8CC50A7
:103FB000C4F8805000F096F904F1680304F1C000E1
:103FC000C4F88430C4E92298C4E9247600F05CFA8D
:103FD000194B294604F596700822C4F8DC30C4E970
:103FE0003455C4E93855C4F8D850C4F83451C4F82D
:103FF000E85000F077F904F1D003C4E93D87C4F834
:10400000F09004F59470C4F8FC60C4F8EC30BDE89E
:10401000F84300F039BA00BF84140020BC1500201A
:10402000F53E0008594100087D410008BD410008E7
:10403000E1410008090001001200020010B5044629
:104040000A4800F025FA636B23B9094B094A1B683B
:10405000626323B1BDE81040044800F01BBAFFF7CB
:1040600075FFBDE81040014800F014BACC150020DF
:10407000BC1500200D3F0008014800F009BA00BF40
:10408000CC150020014800F005BA00BFCC15002077
:104090002DE9F8434FF0000980460F461646D6E951
:1040A0000154013D10D4A389012B08D9B4F90E3075
:1040B000013304D021464046B84749EA0009013D92
:1040C0006B1C04F16804EED13668002EE7D1484637
:1040D000BDE8F8830CB410B51E4B00291C689CB0D9
:1040E00033DB4FF402734FF6FF7CADF814300290CF
:1040F00006901FAB16D001391E9A049107912046F5
:1041000002A90193ADF816C000F0EEFD421C01DAE1
:104110008B2323600022029B1A701CB0BDE8104064
:1041200002B070470491079120461E9A02A901939C
:10413000ADF816C000F0D8FD431C01DA8B232360D4
:104140001CB0BDE8104002B070478B234FF0FF3029
:104150002360F5E71800002010B50C46B1F90E10E9
:1041600000F038F9002803DB236D0344236510BDFC
:10417000A38923F48053A38110BD00BF2DE9F04132
:104180000C46B1F90C101F46CB05054616460BD45C
:1041900021F48051A1813B4632462846B4F90E10E5
:1041A000BDE8F04100F02CB9B4F90E100223002252
:1041B00000F0FAF8B4F90C10EAE700BF10B50C46AD
:1041C000B1F90E1000F0F0F8B4F90C30421C0EBF3B
:1041D00023F4805343F480532065A38110BD00BFB6
:1041E000B1F90E1000F0CEB888420ED98B18834278
:1041F0000BD900EB020C002A6DD0624613F801CDFA
:10420000994202F801CDF9D170470F2A0FD8034621
:1042100002F1FF3C002A5ED00CF1010C013B8C4402
:1042200011F8012B614503F8012FF9D1704740EADD
:1042300001039B0750D1A2F1100370B501F1200CCE
:1042400023F00F0501F1100E00F11004AC441B091E
:104250005EF8105C0EF1100E44F8105C5EF81C5C09
:10426000103444F81C5C5EF8185C44F8185C5EF886
:10427000145CE64544F8145CEAD1013312F00C0FEB
:1042800001EB031102F00F0400EB031328D08E465C
:10429000043C24F003064FEA940C1E441C1F5EF8F5
:1042A000045B44F8045FB442F9D10CF1010402F05C
:1042B000030203EB840301EB840102F1FF3C4AB1EA
:1042C0000CF1010C013B8C4411F8012B614503F802
:1042D000012FF9D170BD7047034602F1FF3C9BE707
:1042E0002246EAE770B5860747D0541E002A3ED022
:1042F0000346CAB201E0013C39D303F8012B9D0704
:10430000F9D1032C2CD9CDB205EB05250F2C1A467B
:1043100005EB054534D9A4F1100C2CF00F0603F180
:10432000100EB6444FEA1C1CC2E90055C2E9025502
:1043300010327245F8D10CF1010214F00C0F03EBAE
:10434000021204F00F0C13D0ACF1040323F00303AA
:104350000433134442F8045B9342FBD10CF0030492
:104360002CB1C9B21C4403F8011BA342FBD170BDA0
:1043700064461346002CF4D1F9E703461446C0E71F
:10438000A446E1E7002238B5064D044608462A60F7
:10439000FDF71EF8431C00D038BD2B68002BFBD066
:1043A000236038BDC015002038B50C4611460022E8
:1043B0008446074D20462A601A466446FDF712F8E7
:1043C000431C00D038BD2B68002BFBD0236038BDC8
:1043D000C015002038B50C46114600228446074D12
:1043E00020462A601A466446FCF76EFF431C00D044
:1043F00038BD2B68002BFBD0236038BDC0150020D2
:1044000038B50C46114600228446074D20462A60E6
:104410001A466446FCF73EFF431C00D038BD2B68AB
:10442000002BFBD0236038BDC0150020014B18685D
:10443000704700BF1800002070B50F4B0F4DAB4206
:10444000A3EB050607D00024B61055F8043B013451
:104450009847A642F9D805F065FF094D094B5E1B48
:10446000AB424FEAA60606D0002455F8043B0134BF
:104470009847A642F9D870BDE4E70008E4E70008D1
:10448000E4E70008ECE70008704700BF704700BF92
:10449000704700BF704700BF024B13B1024800F0E5
:1044A00005B87047000000001D6C0008002301469D
:1044B0001A46184602F084BC2DE9F8430646082047
:1044C000894602F0BFFB0546DFF89880304600F0D1
:1044D000FFFBD8F808305F6827F00307A7F1110445
:1044E000A4EB09042C44B4FBF5F4013C05FB04F4F3
:1044F000A54208DC0021304602F07EFBD8F80830E7
:104500003B44984205D0304600F0E8FB0020BDE86F
:10451000F8833046614202F06FFB01300FD0124A3F
:10452000D8F808303F1B47F001075F60136830463A
:104530001B1B136000F0D2FB0120BDE8F8830021B3
:10454000304602F059FBD8F80820831A0F2BDADD29
:1045500043F001035360054B03491B68C01A086010
:10456000D1E700BF50010020D415002044010020F5
:1045700000297CD0F8B50C46064600F0A9FB54F89B
:10458000043C764FA4F1080523F001016818D7F820
:1045900008C04268844522F0030200F08380DB07F4
:1045A000426000EB020C33D454F8084CDCF80430C1
:1045B0002D1B2144AC6807F1080C644503F001038E
:1045C00064D0D5F80CE0C4F80CE0CEF80840002B1D
:1045D00000F0818041F001036B600160B1F5007F64
:1045E00022D20122CB0849098A40796801330A4363
:1045F0007A6057F8331007EBC302083AC5E9021294
:1046000047F83350CD603046BDE8F84000F066BB57
:10461000DCF80430DB072BD541F00103B1F5007F56
:1046200044F8043C0160DCD3B1F5206F4FEA51231C
:1046300053D28B0903F1390003F13802C300F81893
:10464000FB580838984203D161E09B68984204D037
:104650005A6822F003028A42F7D8D868C5E90230C6
:1046600085603046DD60BDE8F84000F037BB70473C
:10467000114407F1080C836863453FD0C268DA60D3
:10468000936041F001036B606950A7E7002B5FD195
:104690000A44D0E90213CB60996042F001036B60D9
:1046A000AA50B0E70A44D90707D454F8083CED1AD9
:1046B0001A44D5E90213CB60996042F001036B60A4
:1046C000274BBD601B6893429DD8264B3046196826
:1046D000FFF7F2FE97E71144CDE7142B08D9542BCE
:1046E0001DD80B0B03F16F0003F16E02C300A6E7A8
:1046F00003F15C0003F15B02C300A0E741F001039A
:10470000C7E90455C5E902CC6B6069507BE701211C
:10471000921001FA02F279680A437A609EE7B3F5D3
:10472000AA7F06D8CB0B03F1780003F17702C30010
:1047300085E740F25452934206D88B0C03F17D007A
:1047400003F17C02C3007AE74FF47E737E2276E7A2
:1047500041F001036B60016055E700BF500100208C
:1047600048010020041600202DE9F04F01F10B054F
:10477000162D064683B024D8102900F2AD8000F033
:10478000A7FA102518234FF0020CB84F3B445C6881
:10479000A3F10802944200F01D8130466368E2688C
:1047A000A16823F00303CA60234491605A68083467
:1047B00042F001025A6000F091FA204603B0BDE8D1
:1047C000F08F35F0070500F18780A94200F2848060
:1047D00000F07EFAB5F5FC7FC0F06F816B0A7FD0E8
:1047E000042B00F21E81AB0903F1390C03F1380EE2
:1047F0004FEACC009D4F384444680838A04207D1A6
:104800000DE0002AE16880F2DF80884207D00C4684
:10481000636823F003035A1B0F2AF2DDF446DFF826
:1048200050823C69444500F0BC80636823F0030972
:10483000A9EB05030F2B00F34581002BC7E9048882
:1048400080F22F81B9F5007FD7F804E080F0C980AD
:1048500001234FEAD9014FEA5919194403FA09F320
:1048600057F831204EEA030E07EBC103083BA26064
:10487000E360C7F804E047F83140D46001204FEA14
:10488000AC039840704532D810EA0E0F07D12CF0D7
:10489000030C400010EA0E0F0CF1040CF9D007EBEA
:1048A000CC0AD646E146DEF80C300BE059681C46CF
:1048B00021F003014A1B0F2ADB6800F3BF80002AA6
:1048C00080F2E2809E45F1D109F1010919F0030F50
:1048D0000EF1080EE7D11FE10C23336000246CE7D2
:1048E0004FF400704FF0400C4FF03F0E82E7BC6871
:1048F000636823F00309A94503D3A9EB05030F2B34
:1049000052DC5C4B08201B6803F1100804EB090320
:10491000009302F097F9584A83461368A84401337C
:1049200005D008F1FF388044434203EA08084146B5
:10493000304602F061F9B0F1FF3F82464E4A00F086
:10494000DC8004EB0903834200F2D5804B4B0BF172
:10495000FF31186840448446186040F0FB801AEA32
:10496000010F40F0F780D7F808A0C84448F00102D2
:10497000CAF804205446424B1968814238BF186077
:10498000404B1968814238BF186022F00308A845DF
:10499000A8EB050301D30F2B06DC304600F09EF98F
:1049A0009CE7D7F804E069E7621943F0010345F09A
:1049B000010565603046BA600834536000F08EF936
:1049C000204603B0BDE8F08FA2683046D160234492
:1049D0008A60EBE6DC68A3427FF4DFAE0CF1020CE8
:1049E0001DE7B9F5206F4FEA59227DD3142A00F252
:1049F000118102F15C03DB005B32F918FB580839C6
:104A0000994203D1ECE09B68994204D05A6822F0A5
:104A100003024A45F7D8D968C4E902318C60DC60EA
:104A20002CE7142B6CD9542B00F2FD802B0B03F1D7
:104A30006F0C03F16E0E4FEACC00DBE6D4F808C031
:104A40003046661945F001056560CCF80C30C3F8B6
:104A500008C042F00103C7E90466C6E90288736032
:104A6000625000F03BF90834A7E600BF5001002077
:104A7000580100200416002044010020D415002015
:104A800000160020FC15002021444A68304642F000
:104A900001024A6054F8082FD3609A6000F01EF9B2
:104AA0008BE6A144D9F80430304643F00103C9F83D
:104AB000043000F013F908347FE64FEAD50C05F115
:104AC000080362E6621943F0010145F001056560E3
:104AD0003046C7E90422C2E90288516044F809302F
:104AE00000F0FCF8083468E64FEA991202F1390345
:104AF000DB00383281E7BC4224D0BC68626844E7FE
:104B000003F15C0C03F15B0E4FEACC0072E65AF83D
:104B10000839534540F0D8801CF0030F0CF1FF3CDE
:104B2000F5D17B6823EA00037B60400098423FF6A2
:104B3000DEAE18B9DBE6400009F104091842FAD0EC
:104B4000CC46ACE6614B0BF1FF31186808EB000C6A
:104B5000C3F800C01068013070D004EB0902AAEB62
:104B6000020262441A601AF00702CDE9002340D025
:104B7000C2F108029244D04408EA01005A44121AD1
:104B800002EA010B5946304602F036F8421C019BFE
:104B900071D0A0EB0A0000EB0B08186848F0010286
:104BA0005844BC42C7F808A01860CAF804203FF473
:104BB000E1AEB9F10F0F44D94FF0050C6168A9F1CE
:104BC0000C0222F0070201F00101114361600F2A7B
:104BD00004EB0201C1E901CC55D8DAF80420C9E69A
:104BE0000120921000FA02F24EEA020EC7F804E029
:104BF00012E70AEB08020A40ABEB020202EA010BE1
:104C00005946304601F0F8FF431C019BC1D1DDF845
:104C100000B0C2E7542A18D84FEA193202F16F03E4
:104C2000DB006E32E9E6B3F5AA7F18D8EB0B03F18F
:104C3000780C03F1770E4FEACC00DBE5C2F800A058
:104C400091E70123CAF80430A7E6B2F5AA7F25D878
:104C50004FEAD93202F17803DB007732CDE640F239
:104C60005452934225D8AB0C03F17D0C03F17C0E1A
:104C70004FEACC00BEE5009A4FF0000B083A904492
:104C8000A8EB0A0889E7304604F108010093FFF712
:104C90006FFC009BD7F808A018689EE740F25453B9
:104CA0009A420DD84FEA994202F17D03DB007C3233
:104CB000A3E64FF47E704FF07F0C4FF07E0E99E527
:104CC0004FF47E737E2298E67B682EE7D415002091
:104CD0000148FFF7DDBB00BFC41500200148FFF706
:104CE000D9BB00BFC41500202DE9F04FDDB00C4644
:104CF00091460D910F93834601F054FF03681846C7
:104D00001A9301F0F9FF0822189000212CA8FFF750
:104D1000E9FAA389180603D52369002B00F015874B
:104D2000002300249E46CDE93133002333AACDE988
:104D30001634DA4614464D46CDE91BEE3092CDF8D6
:104D400064E0CDF880E0CDF874E0CDF828E0CDF84F
:104D500048E02F466E4BD3F8E46001F01DFF0DF1E3
:104D6000B00C03463A46504628A9CDF800C0B047DB
:104D7000002800F09F80C0F29580289B252B01D051
:104D80000744E7E7B7EB0508064640F097800022A6
:104D90004FF0FF33934609937B787E1C8DF8972064
:104DA0000B9299460136A9F120035A2B00F2B280EA
:104DB000DFE813F0F302B000B000EF02B000B00083
:104DC000B000FD02B000B0006A003502B00027025A
:104DD000D202B000CE025B005B005B005B005B00B8
:104DE0005B005B005B005B00B000B000B000B00097
:104DF000B000B000B0002801B000AA013E022801B6
:104E000028012801B000B000B000B0003A02B000A4
:104E1000B000A802B000B000B000D001B000BC02E9
:104E2000B000B0008A06B000B000B000B000B00022
:104E3000B000B000B0002801B000AA0101022801B2
:104E4000280128012B0201027400B0006402B000A6
:104E50005502AF066E027400B000D0017200AC06BD
:104E6000B000B000B206B00072000022A9F1300319
:104E700016F8019B02EB820203EB4202A9F1300318
:104E8000092BF5D90B928EE70F9B53F8042B002AC0
:104E90000B920F93C0F2B281337882E733784BF0F4
:104EA000200B7EE7082200212CA8FFF71BFA012027
:104EB00007444FE7B7EB0508064610D0329BC4E91C
:104EC000005843443293319B0133072B319315DC57
:104ED00008340A9B43440A93002E7FF458AF329B58
:104EE000002B41F05E810D9B9B8903F04003002B5A
:104EF00041F080830A985DB0BDE8F08F50460D996F
:104F000030AA03F099FB0028EDD133ACE1E700BFF4
:104F1000580500201096B9F1000FE0D001230022BF
:104F20008DF80C91069343AD8DF897200C93CDE945
:104F300013220E92099211921BF0020302D00699DD
:104F4000023106911BF08408329E05D10B99069818
:104F50000F1A002F00F39B806AB101226260319A20
:104F6000013601320DF19701072A32963192216004
:104F700000F3D883083463B102236360319B0236A7
:104F8000013326AA072B32963193226000F3BF83A8
:104F90000834B8F1800F00F0BF82099B0C9A9F1A69
:104FA000002F00F3F9821BF4807F40F01E820C9BDF
:104FB00025601E446360319B32960133072B319389
:104FC00000F33F8308341BF0040F05D00B9B069AB7
:104FD0009D1A002D00F3B383DDE90A3206998A4257
:104FE000ACBF9B185B180A93002E40F00883002387
:104FF00031930E9B1BB150460E99FFF7B9FA33ACB3
:10500000109DA6E60F9B1096073323F00703F3E8E5
:1050100002670F9327F000431F931E964FF0FF3255
:10502000DDE91E01B24BCDE91667FBF773FE0028E0
:1050300040F0F484DDE91E014FF0FF32AC4BFBF78A
:105040004BFE002840F0EA84002200233046394617
:10505000FBF738FE002840F0B2879DF8972000212A
:105060000320A44DA44B2BF0800B0E910690B9F1B8
:10507000470FD8BF1D46CDE9131109910C9011912E
:10508000002A3FF459AF069B0133069354E7102FD3
:10509000319A41F30D82DFF864C2214630460D9CFF
:1050A0002E46CDF854C06546219304E0103F102FE2
:1050B00001F1080116DD102301321030072ACDE975
:1050C00031200D604B60F1DD2146504630AA03F0DF
:1050D000B3FA002840F09B82DDE93120103F102F09
:1050E00033A9E8DC35460C460646219B013215996A
:1050F0003E44072ACDE931262160676000F38186AE
:105100009DF89720083427E70F9BB9F1430F1096BD
:1051100003F1040603D01BF0100F00F001850822F4
:1051200000212EA8FFF7DEF80F9A43AD2EAB2946DB
:105130005046126803F04EFA034601330C9001F01A
:1051400054820C9B23EAE373069300220F968DF89A
:105150009720ECE600230F9F109657F8045B8DF81C
:105160009730002D00F00085B9F1530F00F09486C0
:105170001BF01003119340F08F86099B002BC1F2A6
:105180001B801A462846119901F06AFD0E900028EE
:1051900001F081820E9B11995B1B0C9323EAE37350
:1051A0004FF07309CDE913119DF897200F970991DE
:1051B00006930E9164E71BF0200F10963ED00F9BD4
:1051C000073323F007031846596850F8083B0A468E
:1051D0000F900029C0F2CA8309990029C0F2888281
:1051E00053EA02012BF0800740F08382099A002ADB
:1051F00040F08482BB460C925CAD64E10B9B5B4249
:105200000B9333784BF0040BCBE53378682B03BF5B
:1052100073784BF4007B01364BF0400BC1E52B2338
:105220008DF897303378BCE533784BF0080BB8E550
:105230004BF0100B1BF0200F1096C0D10F9A1BF0F3
:10524000100F52F8043B0F9240F0C2831BF0400F46
:1052500000F0BA8343F3C03211461BB2B9E71BF02A
:10526000200F109600F0C5830F9B0A9A1B681A60E6
:10527000D2175A600F9B04330F93C1E633786C2B1F
:1052800003BF73784BF0200B01364BF0100B88E511
:1052900047F630030F9AADF8983052F8043B0221DC
:1052A0000F924FF078090022154810964BF0020734
:1052B00019900020099D8DF89700002DC0F2EC8018
:1052C00053EA020027F0800B40F0E580002D40F00B
:1052D000D285002940F0538317F001030C9300F0AE
:1052E000718330230DF26F158DF86F31EBE000BF45
:1052F000FFFFEF7FF8E30008F4E30008A8E50008EB
:1053000004E4000810964BF0100B1BF0200200F094
:1053100012830F9B073323F0070319465A6851F88D
:10532000083B0F9100212BF48067C2E710964BF0E9
:10533000100717F0200200F00B830F9B01210733A9
:1053400023F0070318465A6850F8083B0F90B0E75F
:1053500033784BF0800B24E5314611F8019BB9F10D
:105360002A0F01F02882A9F13003092B98BF0022EF
:1053700001F2A28011F8019B02EB820203EB4202D0
:10538000A9F13003092BF5D942EAE2730E460993DD
:1053900009E533784BF0010B03E59DF8972033784E
:1053A000002A7FF4FEAC20228DF89720F9E45046C5
:1053B00001F0F8FB436818461D9301F09DFC209016
:1053C0000746504601F0EEFB83681B93002F3FF425
:1053D00063AD1B9A3378002A3FF4E3AC1278002ABD
:1053E0003FF4DFAC4BF4806BDBE4B9F1650F40F3C5
:1053F0003781DDE9160100220023FBF759FC002864
:1054000000F0D88101236360319B934A0133013658
:10541000072B32963193226000F332850834279BA4
:10542000129A934280F2C982189B1A9A1E44C4E9C8
:105430000023319B32960133072B319300F37A839B
:105440000834129B5D1E002D7FF7BDAD102D319BE2
:1054500040F3EB80DFF804921027DDF83480CDF8BC
:10546000549004E00834103D102D40F3E0800133E7
:105470001036072BC4E90097CDE93136F2DD4146FD
:10548000504630AA03F0D8F8002840F0C080DDE98B
:10549000313633ACE7E75F46012900F02A81022963
:1054A0005CAD1ED1199803F00F01415C1B0943EA62
:1054B0000273120905F8011D53EA0201F3D1BB463C
:1054C0005CAB5B1B0C93099A0C9900238A42B8BF12
:1054D0000A46CDE9133306920E939DF89720119357
:1054E000CEE503F00701DB0843EA4273D20830310E
:1054F00053EA0206284605F8011DF2D1FB07DED566
:105500003029DCD03023023805F8013C5CAB1B1A93
:10551000BB4605460C93D6E70B9B069A9F1A002FB5
:105520007FF73BAD102F319B41F35B804B48224608
:1055300031464FF0100806460D9C159004E0103FD0
:10554000102F02F1080214DD01331031072BC2E9DC
:105550000068CDE93131F2DD2146504630AA03F032
:105560006BF8002853D1DDE93131103F102F33AAF9
:10557000EADC14460E460133159A3E44072BCDE96A
:1055800031362260676000F3C084099B0C9A0834AE
:105590009F1A002F7FF707AD304A102F319B1592CD
:1055A00021DD32464FF010082E460D9D04E0103FDD
:1055B000102F04F1080414DD013328491032072BA1
:1055C000C4E90018CDE93132F1DD2946504630AA50
:1055D00003F032F8D8B9DDE93132103F102F33AC87
:1055E000EADC354616460133159A3E44072BCDE9D1
:1055F00031362260676000F392810834D3E450466C
:105600000D9930AA03F018F800283FF4F0ACD34607
:105610000E9B002B3FF467AC58460E99FEF7A8FF8F
:105620000D9B9B8903F0400361E40C4A1592159A87
:1056300001332E44072B22606560CDE931367FF7B8
:10564000C1AC50460D9930AA02F0F6FF0028DED119
:10565000329E33ACB7E400BF8CE3000898E5000845
:10566000129B319F012B06F1010607F1010704F19E
:10567000080940F310810123072FCDE93176256019
:10568000636000F38081189B01371A9A1E44072F2C
:10569000C9E90023CDE9317600F3828109F10809D7
:1056A000129B0022DDE916015C1E0023FBF700FBC4
:1056B000002840F00981013701352644072FCDE944
:1056C0003176C9F80050C9F8044000F3F08009F1C0
:1056D00008091C9B01371E44C9F80430072F2AAB68
:1056E000CDE93176C9F80030ABDC09F108046AE491
:1056F0005F460A2B72F1000180F0258330338DF86C
:105700006F310123BB460C930DF26F15DBE650465B
:105710000D9930AA02F090FF00287FF478AF329EF6
:1057200033AC36E450460D9930AA159302F084FF4D
:1057300000287FF46CAF329E159B33AC1BE4102D18
:10574000319B40F33187DFF8CC821027DDF83490AD
:10575000CDF8548004E0103D102D04F1080415DD4F
:1057600001331036072BC4E90087CDE93136F2DD6D
:105770004946504630AA02F05FFF00287FF447AF49
:10578000DDE93136103D102D33ACE9DC0133159ADB
:105790002E44072BC4E90025CDE931367FF71CAC38
:1057A00050460D9930AA02F047FF00287FF42FAF32
:1057B000329E11E42799002940F33383DDE91183F8
:1057C0009845A8BF9846B8F1000F0ADD319B4644C2
:1057D0000133072BC4E900583296319300F33E861B
:1057E0000834119FB8F1000FA8BFA7EB0807002FDE
:1057F00000F3CB81DDF844901BF4806FA94440F0A6
:10580000EA81279B129A9342C0F271821BF0010F2A
:1058100040F06D82129AAF18A7EB0907D51AAF4274
:10582000A8BF2F46002F0BDD319B3E440133072BD1
:10583000C4F8009067603296319300F3858608348F
:10584000002FA8BFED1B002D7FF7BDAB102D319BA6
:105850007FF7EBAEDFF8C0911027DDF83480CDF88C
:10586000549004E00834103D102D7FF7E0AE013372
:105870001036072BC4E90097CDE93136F2DD4146F9
:10588000504630AA02F0D8FE00287FF4C0AEDDE911
:10589000313633ACE7E71BF0010F7FF4ECAE0123A8
:1058A000072FCDE93176256063607FF712AF504650
:1058B0000D9930AA02F0C0FE00287FF4A8AEDDE901
:1058C00031760DF1CC0904E7129B012B7FF701AF74
:1058D000112B40F37F87504BCDF824B010259B4609
:1058E000DDF83480159305E009F10809103C102C0F
:1058F00040F33C8301371036072FC9E900B5CDE9E5
:105900003176F1DD4146504630AA02F095FE00287E
:105910007FF47DAEDDE931760DF1CC09E6E7504646
:105920000D9930AA02F088FE00287FF470AE329EF6
:1059300033ACFFF738BB0F991BF0100051F8043B54
:1059400055D11BF040054ED002460F919BB2E9E4C1
:105950000F9917F0100051F8043B41D117F04005A2
:105960003AD00F91024601219BB2A2E45B425F460E
:105970004FF02D004FF0010162EB42029AE4099BC7
:105980005CAD0C939FE550460D9930AA02F054FE91
:1059900000287FF43CAEDDE931760DF1CC0972E6EA
:1059A00050460D9930AA02F047FE00287FF42FAE32
:1059B000DDE931760DF1CC0972E61BF0010F3FF401
:1059C00002AB31E55CAD7EE51BF4007F40F04F8318
:1059D000DA171146FFF7FDBB17F4007240F052834F
:1059E0000F91012165E41BF4007240F046830F9192
:1059F00098E41BF0100F40F094821BF0400F40F031
:105A0000CA831BF4007F00F08C820F9B0A9A1B68EC
:105A10001A702FE4A8E5000898E50008DDE91601F2
:105A200002460B46FBF776F9002840F01C86B9F1D8
:105A3000610F00F01F85B9F1410F00F04A85099B05
:105A4000013300F0EF8329F02003472B00F0E185BC
:105A50000E90DDE91612002A13464BF48078C0F24E
:105A6000E68400231593DDE91623CDE92223A9F16D
:105A70004103252B00F20E83DFE813F018040C031A
:105A80000C030C03D803A5040C030C030C030C0338
:105A90000C030C030C030C030C030C030C030C038E
:105AA0000C030C030C030C030C030C030C030C037E
:105AB0000C030C030C030C030C030C0318040C0361
:105AC0000C030C03D803A504A64B109619931BF0E6
:105AD000200200F01A810F9B073323F007031946B9
